:020000041000EA
:1000000000B5324B212058609868022188439860DF
:10001000D860186158612E4B002199600221596106
:100020000121F02299502B49196001219960352056
:1000300000F044F80222904214D00621196600F024
:1000400034F8196E01211966002018661A6600F04E
:100050002CF8196E196E196E052000F02FF8012189
:100060000842F9D1002199601B49196000215960AB
:100070001A491B48016001219960EB211966A021F2
:10008000196600F012F800219960164914480160C1
:100090000121996001BC002800D000471248134993
:1000A000086003C880F30888084703B5996A0420EC
:1000B0000142FBD001200142F8D103BD02B5186610
:1000C0001866FFF7F2FF186E186E02BD00000240BE
:1000D000000000180000070000035F00212200005C
:1000E000F4000018222000A00001001008ED00E03C
:1000F00000000000000000000000000074B24E7A12
:1001000000200420F7010010C3010010C5010010F9
:10011000C1010010C1010010C1010010C101001097
:10012000C1010010C1010010C1010010C701001081
:10013000C1010010C1010010C9010010CB01001065
:10014000CD010010CD010010CD010010CD01001037
:10015000CD010010CD010010CD010010CD01001027
:10016000CD010010CD010010CD010010CD01001017
:10017000CD010010CD010010CD010010CD01001007
:10018000CD010010CD010010CD010010CD010010F7
:10019000CD010010CD010010CD010010CD010010E7
:1001A000CD010010CD010010CD010010CD010010D7
:1001B000CD010010CD010010CD010010CD010010C7
:1001C00000BE00BE00BE00BE00BE00BE00F04BF888
:1001D000103800BEF2EB8871301C00104C1C00106F
:1001E0003402001090A31AE700202149086006C8D5
:1001F00081F3088810471F48006800282FD10DA4FC
:100200000ECC002902D000F012F8F9E71A491B4A77
:10021000002000E001C19142FCD1194988471949E9
:1002200088471949884700BEFDE701C901C29A42C3
:10023000FBD370474C1C0010C0000020600300205E
:10024000EC1E00100000042000000420EC1E001032
:1002500000100420001004200000000070470B482C
:1002600001F0D8F90047EFF30580C0B270470000F5
:1002700008ED00E0000000D06003002030080020FE
:100280000111001011030010F11100105756000069
:1002900006005250ABB36053E01B001006005250F2
:1002A000861C0302F01B0010060052505422A29D2F
:1002B000FC1B001005005250DE65F468EC1E0010B7
:1002C000F8B5C04606480749091A8B10C90FC91866
:1002D00010B5491003D0044B002B00D0984710BD37
:1002E000600300206003002000000000054B10B5F3
:1002F000002B03D00449054800E000BFFFF7E2FFF0
:1003000010BDC04600000000E4060020681B00107D
:100310000020704770B5EFF3108C72B60D4D2B684E
:10032000002BFCD0BFF35F8F0724CB08C618C05C3E
:1003300001230C40A3401C000440034207D1184392
:100340003070BFF35F8F2C608CF3108870BD10008D
:1003500000F050FF2C0100D0024B18688007C00F3E
:100360007047C04600C006400021044B044ABFF35A
:100370005F8F02C39342FAD17047C046000100D09C
:10038000800100D0044A1078431CDBB2172B00D93F
:10039000102313707047C046A80200200123834039
:1003A000002904D0034A1360034A13607047034ACC
:1003B0001360FBE780E200E000E100E080E100E0A4
:1003C000024B10309B688000C058704700ED00E081
:1003D00070B50D00EFF3108672B60F4A1368002B4C
:1003E000FCD0BFF35F8F0D4B10309B6884001B590E
:1003F0000B4A934203D09D4201D000F013FF074BFC
:100400009B681D51BFF35F8FBFF35F8F0022024BCC
:100410001A6086F3108870BD240100D000ED00E062
:10042000CD010010F0B5DE4657464E464546E0B5D4
:100430000C0083B0EFF3108A72B6604A1368002B89
:10044000FCD0BFF35F8F1022914681444A465C4B3B
:1004500096009B689D595B4B98469D4205D0A542EE
:1004600016D0594FEB1B2F2B14D9554B9B689D5120
:10047000BFF35F8FBFF35F8F0022504B1A608AF388
:10048000108803B0F0BCBB46B246A946A046F0BDFA
:100490001D00EAE7012383409B465A464B4B1B68ED
:1004A0001A4000925A464A4B1A60BFF35F8FFFF71B
:1004B000DAFE031E01901DD12A0001339A43906891
:1004C000844208D171E04B005B189B00FB189868D0
:1004D000A04245D01A00062151560029F3DA844281
:1004E0006AD0009B002B34D05A463A4B1A60374BE7
:1004F0001A60BAE7814530D12A0001239A439068F7
:100500008442E8D1062151561300002940DB4A00FD
:10051000501880003C188046A0689860E079D87137
:1005200006202056987100282FDBA488F81A64054D
:10053000241544440019E0240005400D2402204302
:1005400098805318244A9B001078FB1898711170FA
:10055000C7E75A461E4B1A6087E700F063FECBE7F9
:10056000062159560029D2DA0199002910D1FF310C
:1005700091711A49918018490A789A71184ADB1BBF
:100580005B415A43120D0A70ABE7BD200002D7E76A
:10059000144A1549D21A083A5002400D0143998075
:1005A000124952080A43DA809BE70621515613008C
:1005B0000029ACDA4546DEE71300D5E7240100D078
:1005C00000ED00E0CD010010AC02002000E100E0F1
:1005D00080E100E080E200E02E08002000BDFFFF87
:1005E000AAAA0000E602002000F0FFFF00F8FFFFCB
:1005F000F8B5012504000543FFF735FEEFF3108C35
:1006000072B6214A1368002BFCD0BFF35F8F1F4ED8
:100610002100B7681E4A1F4B891A49414B431B0DE5
:1006200059B28300F858A8421CD00623D3568B42F7
:100630001CD01223D3568B4222D01E23D3568B427A
:1006400020D02A23D35603208B4210D0124B1A7885
:100650001970A271BFF35F8F00220B4B1A608CF3ED
:100660001088F8BDB2680D48D050EFE70020430075
:100670001B189B00D218FF239371094B9380E5E769
:100680000120F4E70220F2E7240100D000ED00E0B1
:10069000AC020020AAAA00002E080020CD01001004
:1006A00000BDFFFF054B064A1360064A1360536006
:1006B0009360D36013615361936170478080808041
:1006C00000E400E004E400E0024B9C466144890041
:1006D000016070474000003483680B4810B58446C1
:1006E000614462441201090159189B185C684A6808
:1006F0000120944201D802D00020C0B210BD1A6877
:100700000B689A42F9D8F7E7FFFFFF0FF8B5574695
:1007100045464E46DE46E0B598460CAB1C780DAB20
:100720001B78070091469A460568002C5ED1AC7B89
:10073000002C3BD0660029683619033E89194B7896
:10074000AB73002B00D1EB7300238B704B700B70DD
:100750002D4BE218BB6812019B184A461A604246AC
:100760005A600A9A9A600B9ADA6000238B704B7079
:100770000B706B7B9B46002B2BD022005946A86840
:100780006B6898472A68002816D05B4658465B007D
:100790005B449619033BB070D118D35C002B00D09A
:1007A00073705B460C706B735C4513D0F0BCBB463A
:1007B000B246A946A046F8BD5B465B005B44033BDE
:1007C000D3189C709119925D002A00D05A705B4634
:1007D0000B706C734A464346387D00F0E3F9051E02
:1007E0000AD10E9B002BE1D01D70DFE7660029685F
:1007F0003619033E8919ABE75346002BF1D121008E
:10080000386800F025FCECE7FFFFFF0FF0B5DE468F
:1008100057464E4645460023E0B58DB00A936A4BD5
:100820008200D75800239B460B9000F06BF9020022
:100830000B007868EFF3108972B64D460168002905
:10084000FCD0A946BFF35F8F39684E7B8C46002EE3
:100850002ED0BC685D49A246711809018A445146F0
:100860000868496804000D00A41A9D41002D5EDD52
:1008700002000B000B9800F095F9002300229A4625
:10088000002308920993002398467B68BFF35F8F8B
:100890005A461A6089F310884346002B12D100286B
:1008A000C3D10DB0F0BCBB46B246A946A046F0BDD0
:1008B000002300229A460023089209930023002077
:1008C0009846E2E70A9B514618023043C04706901B
:1008D00007917A68EFF3108572B654461368002BBF
:1008E000FCD0A246BFF35F8F0699079A002A3BDB34
:1008F000114302D03B69002B52D13B68D97B0029C0
:1009000005D01A68480041185218033A5670DE7331
:10091000FA68013E935D013393555B463B617B680A
:10092000BFF35F8F5A461A6085F310887DE7002D6C
:1009300001D1002C9CD10021604600F0F1FA534611
:100940005C681B680893099453469B689846534615
:10095000DB689A46FB689B19013B1B780A931B02D4
:1009600003433B61002090E73B69002BC5D0089B07
:10097000099C5B1A9441089809991A002300A14226
:1009800019D899421BD0002104910131039151469D
:1009900001914146380002960091FFF7B7FEBCE78F
:1009A00000F0B0F8069A079B12184B41994202D802
:1009B000E9D19042E7D901225242D317E3E70899DF
:1009C0009142E0D9F7E7C046FC060020FFFFFF0F89
:1009D00010B5124C6368002B04D00A211048FFF7B1
:1009E00073FE10BD23000F4A1021206800F098F913
:1009F000032000F07BF8032000F042F903200A49AD
:100A000000F08AF8FFF7BEFC084B9C4603236044C5
:100A10002375074B80006060DC60DEE7F402002095
:100A200018080020D90600100D08001040000034FE
:100A3000FC060020F0B5D6464F464646C0B5EFF35B
:100A400005823F23134018001038EFF3108C72B664
:100A500020490A68002AFCD0BFF35F8F01221700EB
:100A600087401D4C1600A24667631C4C2578A046A3
:100A70002C00C4402640224215D05246566A184ADD
:100A80008400A258964218D34246164BBD43E35801
:100A90001570BFF35F8F00220A608CF31088002B63
:100AA00006D0984704E0BFF35F8F0E608CF3108888
:100AB000E0BCBA46B146A846F0BD0B4A9B00904642
:100AC00043441A681A60BFF35F8F00230B608CF3F6
:100AD0001088EDE7280100D0004005402F080020D5
:100AE0001C08002088050020D03F054010B5034BAE
:100AF00001001800024AFFF70DFC10BD2D08002070
:100B0000681B0010034B596A0A00986A596A8A42A6
:100B1000FAD170470040054070B504000D00EFF3B6
:100B2000108672B61A4A1368002BFCD0BFF35F8F91
:100B3000002D1BD02000FFF743FC164981420AD04C
:100B40002000FFF745FC01212000FFF727FC0123CF
:100B5000A340114A1360114BA400E550BFF35F8F0F
:100B600000220B4B1A6086F3108870BD0121A14052
:100B70000A4BA200D5500A4B20001A788A43054937
:100B80001A70FFF74FFC00212000FFF707FCE5E794
:100B9000280100D0350A0010386005408805002083
:100BA0002F080020F0B54F46D6464646C0B5070090
:100BB0002E4C616A0D00A66A616AA942FAD18B4285
:100BC00008D805D00120E0BCBA46B146A846F0BD21
:100BD000B242F7D9EFF3108A72B6254801680029AE
:100BE000FCD0BFF35F8F0125BD4022491F4C8846D2
:100BF000097889462943C9B28C4641466046087047
:100C0000391D890065630A511B49B8004350216AA8
:100C10000020294219D0616A0800A66A616A8142EF
:100C2000FAD18B4219D801D1B24216D8CC450BD09B
:100C30000E4B1F221D625D6301233A4093400F4A11
:100C4000136043464A461A700120BFF35F8F0022AB
:100C5000074B1A608AF31088B5E70020BFF35F8F57
:100C60000022034B1A608AF31088ACE7004005406D
:100C7000280100D02F0800201C08002080E200E09E
:100C8000EFF3108C72B60A490B68002BFCD0BFF34F
:100C90005F8F01238340074A0748136202789A4313
:100CA0000270BFF35F8F00230B608CF310887047D6
:100CB000280100D0004005402F08002070B5050035
:100CC0000E001400002923D0002A12D080686B681F
:100CD0009847296800280ED063001B197200033B57
:100CE0009219CB18033A9E7088188A5C002A11D199
:100CF0000470300070BD73009B196200033B121931
:100D0000CB18033A9C7088188A5C002A05D10670BB
:100D10002000EFE75A700470EBE75A700670F7E7AF
:100D200030B583600023CCB2437301330473426057
:100D30008373C4730D000068012C06D9421C013373
:100D4000DBB2137003329C42F9D1FF2129404B00E2
:100D50005B18C01800230338437030BD70B5050020
:100D60000C1E07D0630001681B19033BCB185A788F
:100D7000002A01D1200070BD5000801803380918E6
:100D800000204E784870210058702800FFF796FF29
:100D9000310004002800FFF7E1FF0600002C26D0F8
:100DA0000028E7D021003200A8686B6898472968BE
:100DB00000280ED073009B196200033B1219CB1858
:100DC000033A9C7088188A5C002A00D05A7006701A
:100DD000D0E763001B197200033B9219CB18033A4A
:100DE0009E7088188A5C002A00D05A700470340003
:100DF000C0E7C046F8B557464E464546DE464C006D
:100E0000E0B5641817000268033C0500105D131973
:100E10000E009C46002852D0430098461B18033B06
:100E2000D31859788A46002919D1002F0CD0EC7BB1
:100E3000002C50D063001B19D318033B5E70EE7377
:100E4000434619180339531800229A70002362464A
:100E50005370F0BCBB46B246A946A046F8BD490057
:100E600051440339521851788846002151708946FF
:100E70005970524601002800FFF720FF4346824682
:100E8000002B07D05B0029684344033BCB185A78FA
:100E9000002A2CD1514642462800FFF70FFF0100DF
:100EA000002F1AD0A4462A68EF7B9444002F04D068
:100EB0007B00DB19D318033B5E70EE7310E0002F4C
:100EC000C4D0E97B002910D04B005B18D318033B3A
:100ED0005E70EE73BAE7EE73B6E7A4462A689444F0
:100EE0000029B3D04B009846AAE7EE73AEE7500056
:100EF0008018033809184878834648464870587067
:100F000041462800FFF7DAFE594680462800FFF7E1
:100F100025FF414602002800FFF7D0FE8046B9E7D2
:100F2000F8B557464E464546DE46E0B5467B026874
:100F30007500AD19033D0F00515D531904009C4627
:100F4000002953D04B0098465B18033BD3185878C0
:100F5000824600281BD1002F0CD0E57B002D51D0FC
:100F60006B005B19D318033B5E70E6734346581859
:100F70000338131800229A70002362463000537021
:100F80006173F0BCBB46B246A946A046F8BD40001E
:100F90005044033812185078804600205070814623
:100FA000587052462000FFF789FE43468246002BC8
:100FB00007D05B0021684344033BCB185A78002AD2
:100FC0002CD1514642462000FFF778FE0100002F49
:100FD0001AD0AC462268E77B9444002F04D07B00F3
:100FE000DB19D318033B5E70E67310E0002FC3D00B
:100FF000C07B002810D043001B18D318033B5E7041
:10100000E673B9E7E673B5E7AC4622689444002876
:10101000B2D043009846A9E7E673ADE750008018C8
:101020000338091848788346484648705870414646
:101030002000FFF743FE594680462000FFF78EFE52
:10104000414602002000FFF739FE8046B9E7C0465E
:1010500070B5050000292CD0437B8B422ED04C006C
:1010600000686418033C0419A278002A21D05300B8
:101070009B18033BC25CC6188A4202D11BE0002ABF
:1010800008D053009B18033BC3185A788A42F6D104
:1010900062785A70002301222800A3706370FFF762
:1010A000A9FE697B02002800FFF708FE6873012093
:1010B00000E0002070BD63783370EBE70122190077
:1010C000FFF798FEF2E7C04610B50400FFF75AF9A3
:1010D00001002000FFF7F8FAFF232371BFF35F8FB1
:1010E00010BDC04610B50400FFF74CF90100200008
:1010F000FFF7EAFAFF23A380BFF35F8F10BDC0465E
:101100002C4B2D4A70B51A602C4A2D4B2D491A6074
:1011100014008B689C43FBD12B4D2C4EB54208D25A
:10112000013E761BB60808CD984723000134B34230
:10113000F9D100F07DF8264A214B1A60214A9368C4
:10114000DB43DB01DD09002BF9D14022214B224C8E
:10115000224E9A675A671A67DA66B44208D2236841
:101160002000002B20D00834FFF7BCFFB442F6D398
:101170001B4C1C4EC022B168200000F04BFBB46039
:10118000FFF7F2F8FFF78EFAFFF722FC164C174E26
:10119000B44208D2013E361BB60808CC98472B0053
:1011A00001359E42F9D170BD0834FFF78DFFB4427E
:1011B000D5D3DDE700E00040BFCDFBFEFE7F3C0065
:1011C00000F0004000C00040480300205803002009
:1011D000FFFFFF0100F00140400300204803002012
:1011E0000000002000ED00E0580300206003002014
:1011F00000BEFDE70FB400B5084883B000F0C0FBA7
:10120000049B002B07D005A91800019100F0E2F91A
:10121000034800F0B5FB00BEFDE7C0468C1B001084
:101220009C1B001010B50148FFF7E4FFA01B001045
:1012300010B50C2082B000F0A9F9FFF78DF8002856
:1012400010D0864B86488649864A18605960986057
:10125000D960186159619861D961186259625A62FE
:1012600002B010BD804CA06700F098F901227F4BBE
:101270001A60636C012BFCD103227D4B1A607A4A01
:10128000936B012BFCD1013301217A4A7A480093F8
:10129000043300F027F90523784A009301217848A8
:1012A00000F020F9774B5A68FF2A02D880225200BA
:1012B0005A6080226E4B694C12011A602169002924
:1012C00005D0606900F0D8F901300138FDD1E02285
:1012D0006C4B6D4819680A4002600222196851403F
:1012E00001320A40042102609A681142FCD0802138
:1012F000664A09011160802252005A60644B2361E2
:10130000644B5968FF2900D85A6003220121574BCA
:101310001A60604A93681942FCD0E02310680340C9
:101320005D480360126803234A4002211340594A72
:10133000036093681942FCD08021584B0901196061
:101340008021574B490051606361564B5A68FF2A10
:1013500000D859608022544B12011A60E1690029BB
:1013600005D0606900F088F901300138FDD1E02333
:101370004C4A11680B404D490B6080214C4B0901D0
:1013800019608021364B49005160E361494B5A682E
:10139000FF2A00D859608022474B12011A60216A47
:1013A000002905D0606900F067F901300138FDD1EE
:1013B000E023404A11680B4040490B608021404BBC
:1013C0000901196080235B0053608022244BD20204
:1013D00023623C4B5968914200D25A6080223A4BBA
:1013E00012011A60616A002905D0606900F044F9B1
:1013F00001300138FDD1E023324A11680B403349F6
:101400000B608021324B090119608023DB0253609D
:10141000144B63622F4B5A68FF2A02D88022520075
:101420005A6080222C4B12011A60A169002905D054
:10143000606900F021F901300138FDD1E023254A2F
:1014400011680B4025490B608021254B090119606B
:1014500080235B005360124BA36101E7600300200F
:10146000006CDC021BB70000008000403CB0004074
:1014700030B00040002F685900800240008C864741
:1014800000C00240308000403090004030A000405A
:10149000001BB7003C8000403C9000403CA0004056
:1014A000405973075480004054B0004054900040AD
:1014B00054A000406080004060B000406090004058
:1014C00060A000406C8000406CB000406C90004018
:1014D0006CA000404880004048B000404890004068
:1014E00048A00040F8B504000C2017001D000E00B5
:1014F00000F0C2F843011B1A9901C91AC900091862
:101500008901380000F0B8F8069B29041B03194331
:101510002368002B20DB194B194DE3185A42534125
:101520008022520194461B03164A63441360164AF4
:1015300013601F00AA689743FBD1C023221D9B01A3
:10154000134321222660A0601A602268002AFCDA78
:101550000822E1601A60F8BD3F2322681340B342BD
:10156000D9D1A3681B051B0D8342D4D1EE22E368B9
:10157000D20213408B42CED1EDE7C0460040FDBF02
:1015800000C0004000E0004000F000408023024A1C
:101590009B000343D362704700800540AA23064A9C
:1015A0001B0113602F230549D360054B1960536855
:1015B000002BFCDA7047C0460040024000B0FA0041
:1015C0000060024010B5002800D110BD00F086F97F
:1015D000FBE7C04610B5094A0300146884B0002C2C
:1015E00008D0012200910648524203A9A0470120D9
:1015F00004B010BD00F0C4F90020F9E7E0060020B7
:10160000C515001001480421014B18472003002094
:1016100035160010142310B50100188804331B88F8
:10162000984710BD162310B50100188802331B8897
:10163000984710BDF8B54746CE4680B50F1E19D065
:1016400014239946043304000025012698464B468E
:101650001888434621681B88984701C4431E984157
:10166000013540420640AF42F1D13000C0BCB9461E
:10167000B046F8BD0126F8E7114A936F9B0813D2D4
:1016800010665166002905D0FFE7FFE7FFE7516FBD
:10169000106F704704B5002801D00020C04300F04F
:1016A0004BFA002104BDC046F0B5146E556E576F5D
:1016B000166FFFF7E5FF1466556657671667F0BDAE
:1016C000000000D010B50148FFF794FDAC1B0010DE
:1016D000132370B51D78012D15D010DD1B48FFF7C1
:1016E000A1FF1B4C01008022200000F093F8022D86
:1016F00006D01848FFF78EFF174B186070BD144CCA
:10170000164BA364F5E7164B114C23606360A3608E
:10171000E36023616361A361E36123626362A362A7
:10172000E36223636363A363E36323646364A36487
:10173000E36423656365A365E36523666366A36667
:10174000E36623676367A367E367D9E75344000051
:10175000880400204C330000140700206517001097
:10176000C516001007B5604601880A0A0230DF2A54
:10177000FAD1C9B2820804D3028840880004104319
:1017800000E00068014A5050039007BD8804002023
:1017900010B50148FFF72EFDC41B0010132310B530
:1017A00010481C78FFF73EFF0100012C0AD003DD32
:1017B00080220D4800F02EF80C48FFF72BFF0C4B51
:1017C000186010BD084C5422200000F023F82200BD
:1017D000084980322368002B00D1216004349442F0
:1017E000F8D1E9E753460000180700204C33000009
:1017F000140700209117001001480421014B1847DD
:101800003003002035160010014B1B6818470000FC
:1018100030030020014B5B681847000030030020B4
:10182000F0B546464F46D646C0B5437C80460E00CE
:101830001700002B4BD0002A32DD274B01259A469A
:101840004B1E00240020994607E0335D0A2B2CD064
:101850002B0001340135BB4213DA002CF5D133786B
:101860000A2BF5D143461B7C002BF1D14346504651
:1018700002211B68984728002B0001340135BB4228
:10188000EBDB874204DD4346391A1B683018984762
:10189000F619013E33780D3B5A42534142461374C8
:1018A000E0BCBA46B146A846F0BD4B461B5D0D2BC9
:1018B000CED0A042DADA4346211A1B683018984786
:1018C0004346504602211B6898472800D4E7036826
:1018D000110030009847E3E72C1C0010F0B5CE460D
:1018E000474680B583B06B46DE1CD02330701B06A4
:1018F0001C68204B804601A91800994600F024F985
:10190000071E20D01C4B1C68002C29D01B4D02E068
:10191000E468002C0FD02368002BF9D02B68002B33
:1019200001D0A342F4D1200001223100FFF778FF5B
:10193000E468002CEFD1002F12D1404603B0C0BCA8
:10194000B946B046F0BD019B64B29C420CD04846FB
:1019500000F002F9084B1C68002C01D00127D5E7E4
:10196000484600F0E1F8E8E7034B1C68002CCDD1B5
:10197000E3E7C04640030020D8060020DC06002034
:10198000F0B5DE4645464E465746E0B583B0060004
:1019900000F092F8D0231B061C68304B050001A90B
:1019A00018009B4600F0D0F8804600283DD02C4B14
:1019B0001C689A46002C47D00A232A4F994602E019
:1019C000E468002C17D02368002BF9D03B68002B6B
:1019D00001D0A342F4D120002A003100FFF720FFFC
:1019E0006B464A4620001A7101A90122FFF718FF31
:1019F000E468002CE7D14346002B25D153461C68F0
:101A0000002C06D06368002B0BD09847E468002CAC
:101A1000F8D1280003B0F0BCBB46B246A946A046A8
:101A2000F0BDE468002CEDD1F3E7019B64B29C4269
:101A30000ED0584600F090F8094B1C689A46002CCE
:101A400002D001239846B7E7584600F06DF8D5E775
:101A5000034B1C689A46002CAED1DAE74003002005
:101A6000D8060020DC06002010B5024800F004F87B
:101A700010BDC0460C07002030B5002589B0040019
:101A80000922002101A80095FFF7BEFE09220021CE
:101A900005A80495FFF7B8FE4B236A466846137005
:101AA00004A90D2200F038F815210822200069440D
:101AB000FFF7B0FE09B030BD10B583070AD00300B0
:101AC000032102E001330B4205D01A78002AF9D134
:101AD000181A10BD030019680C4A0D4C8A188A4365
:101AE00022420FD15968094A04338A188A43224294
:101AF00008D15968054A04338A188A432242F1D032
:101B000000E001331A78002AFBD1E1E7FFFEFEFE78
:101B100080808080F8B5C04601B40248844601BC8C
:101B2000604700BFE501002001B40248844601BCC3
:101B3000604700BF4901002001B40248844601BC4F
:101B4000604700BFA502002001B40248844601BCE2
:101B5000604700BF0901002001B40248844601BC6F
:081B6000604700BFC100002036
:101B6800486172647761726520616C61726D2025CD
:101B78006420616C726561647920636C61696D656C
:101B8800640000000A2A2A2A2050414E4943202A8C
:101B98002A2A0A000A0000004861726420617373EF
:101BA800657274006D697373696E6720646F75621E
:101BB8006C652066756E6374696F6E0000000000C6
:101BC80052656C6561736500626F6F74325F77325E
:101BD8003571303830000000312E342E30000000CE
:101BE8007069636F5F770000627574746F6E5F74FD
:101BF8006573740046656220313420323032330018
:101C080006005250D3F07542C81B0010060052500F
:101C1800E182887FD01B001006005250BBFF3CB603
:081C2800E81B00100D0A00008A
:101C3000081C0010141C001090020010201C001042
:0C1C40009C020010A8020010B40200106A
:101C4C00D02330B500251B0600245D5706E0036841
:101C5C00BFF35F8F1C6081F3108820BF0268EFF325
:101C6C00108172B61368002BFCD0BFF35F8F037921
:101C7C007F2BECD905710368BFF35F8F00221A60CC
:101C8C0081F3108830BDC04603000068EFF3108C60
:101C9C0072B60268002AFCD0BFF35F8F04229A56FA
:101CAC00002A04DB002900D00A60002004E0D022C6
:101CBC000120120612681A711B68BFF35F8F002295
:101CCC001A608CF3108870470268EFF3108172B6BB
:101CDC001368002BFCD0BFF35F8FFF2303710368E5
:101CEC00BFF35F8F00221A6081F3108840BF7047EA
:101CFC0010B5084C2378002B0AD1802306480749DD
:101D0C005B051A68C25004338B42FAD1012323704D
:101D1C0010BDC0462C0800209805001000010010D2
:101D2C0010B5014B984710BD99050020034B1A685C
:101D3C00C0239B009343024A136070470C80014000
:101D4C000C900140054B1A6880239B005340C02225
:101D5C0092001340024A13607047C0460C80014049
:101D6C000C9001401423F0B5D6464F4646469A4691
:101D7C00814618880433C0B598460E001B88264946
:101D8C0014009847534607001888434623491B887C
:101D9C009847534605001888434621491B889847A5
:101DAC008046FFF7A5FFB847A847FFF7CBFF221ED9
:101DBC0020D0C02108270220490511E0002C14D0A6
:101DCC00131B0D2B20D9002D0AD02300002A05D07F
:101DDC000B6E013A3370130001362343002B09D0EC
:101DEC003D008B6A1D401842E8D1002DEDD1230037
:101DFC001343F5D1FFF79AFFC047FFF791FFE0BC03
:101E0C00BA46B146A846F0BD4B461B78013C0B6662
:101E1C0001239C46E144E8E7494600004558000090
:101E2C00464300007047C046100000000000000050
:101E3C000000010000000000000000000000020093
:101E4C000000000000000000000003000000000083
:101E5C00000000000000FF000000000000B5486812
:101E6C0001318E460047704609380149884700BD4C
:101E7C00F10500100C030020000000008803002076
:101E8C00980600200000000000000000A8060020BA
:101E9C000000000000000000100000000000000026
:101EAC00503300004C330000543300005233000018
:101EBC004D5300004D4300005334000043340000E8
:101ECC000000000000000000F917001005160010BB
:101EDC00D11600109D170010ED020010691A0010A9
:04000005100001E9FD
:00000001FF
