:020000041000EA
:1000000000B5324B212058609868022188439860DF
:10001000D860186158612E4B002199600221596106
:100020000121F02299502B49196001219960352056
:1000300000F044F80222904214D00621196600F024
:1000400034F8196E01211966002018661A6600F04E
:100050002CF8196E196E196E052000F02FF8012189
:100060000842F9D1002199601B49196000215960AB
:100070001A491B48016001219960EB211966A021F2
:10008000196600F012F800219960164914480160C1
:100090000121996001BC002800D000471248134993
:1000A000086003C880F30888084703B5996A0420EC
:1000B0000142FBD001200142F8D103BD02B5186610
:1000C0001866FFF7F2FF186E186E02BD00000240BE
:1000D000000000180000070000035F00212200005C
:1000E000F4000018222000A00001001008ED00E03C
:1000F00000000000000000000000000074B24E7A12
:1001000000200420F7010010C3010010C5010010F9
:10011000C1010010C1010010C1010010C101001097
:10012000C1010010C1010010C1010010C701001081
:10013000C1010010C1010010C9010010CB01001065
:10014000CD010010CD010010CD010010CD01001037
:10015000CD010010CD010010CD010010CD01001027
:10016000CD010010CD010010CD010010CD01001017
:10017000CD010010CD010010CD010010CD01001007
:10018000CD010010CD010010CD010010CD010010F7
:10019000CD010010CD010010CD010010CD010010E7
:1001A000CD010010CD010010CD010010CD010010D7
:1001B000CD010010CD010010CD010010CD010010C7
:1001C00000BE00BE00BE00BE00BE00BE00F04BF888
:1001D000103800BEF2EB8871587500108075001061
:1001E0003402001090A31AE700202149086006C8D5
:1001F00081F3088810471F48006800282FD10DA4FC
:100200000ECC002902D000F012F8F9E71A491B4A77
:10021000002000E001C19142FCD1194988471949E9
:1002200088471949884700BEFDE701C901C29A42C3
:10023000FBD3704780750010C000002030050020FF
:10024000F07900100000042000000420F079001074
:1002500000100420001004200000000070470B482C
:1002600003F058FB0047EFF30580C0B27047000071
:1002700008ED00E0000000D030050020B41200209E
:10028000651D0010B1060010551E001057560000E5
:1002900006005250ABB36053187300100600525062
:1002A000861C030228730010060052505422A29D9F
:1002B0003473001005005250DE65F468F0790010C8
:1002C000F8B5C04606480749091A8B10C90FC91866
:1002D00010B5491003D0044B002B00D0984710BD37
:1002E000300500203005002000000000054B10B54F
:1002F000002B03D00449054800E000BFFFF7E2FFF0
:1003000010BDC0460000000044110020C86F00105E
:10031000D02370B5042582B01B069D616B469E1DDF
:1003200094231B4C94211B48337004F0FDF80122E8
:100330003100200006F038FEE3681D4220D1E3685A
:10034000DB0619D4E3681D421ED06A460123002152
:1003500007320F4806F0F8FD0A2001F0FBF8D02321
:1003600004221B065A616B460B48D97904F0DCF86D
:100370006B46D87902B070BD084803F0DFFFE4E7B0
:10038000074803F0DBFFE0E7064803F0D7FFDCE7B0
:1003900000C00340C86F001014700010EC6F001014
:1003A000E06F00100470001070B5104C82B0E3686C
:1003B0009B0702D5E368DB0604D50D4803F0BEFFBA
:1003C00002B070BD7E224300D025134004266A4649
:1003D0002D061371517120000222AE6101A906F0B1
:1003E000E3FD0A206E6101F0B5F8E9E700C00340C3
:1003F0001870001070B584B06B46D871DC1DD02326
:1004000004267E211B069E6123781D4D5B0019404A
:1004100080231C481943217004F086F80122210032
:10042000280006F0C1FDEB681E4220D1EB68DB0618
:1004300019D4EB681E421ED00F2201236A4400210A
:100440000F4806F081FD0A2001F084F8D023042231
:100450001B065A616B460C48D97B04F065F86B4665
:10046000D87B04B070BD094803F068FFE4E7084892
:1004700003F064FFE0E7074803F060FFDCE7C046F5
:1004800000C00340C86F001014700010EC6F001023
:10049000E06F001004700010F0B5D0240427802510
:1004A000794E83B004F04CF87849300006F09CFC9B
:1004B0000121042000F02AF90121062000F026F98C
:1004C0000121072000F022F90220240600F036F96D
:1004D000022001F03FF816206762676100F02EF9F4
:1004E000ED030A2001F036F80A206562A56101F0EB
:1004F00031F83220656101F02DF80122644B1A7049
:10050000F3689B0703D5F368DB0600D49BE06148E2
:1005100003F014FF5C48C3689B0703D5C368DB0680
:1005200000D481E05B4803F009FF5748C3689B078C
:1005300002D5C368DB0668D5564803F0FFFE524873
:10054000C3689B0702D5C368DB064FD5514803F04B
:10055000F5FE4D48C3689B0702D5C368DB0636D558
:100560004C4803F0EBFE4848C3689B0702D5C368BC
:10057000DB060AD5474803F0E1FE1420FFF73AFFF7
:10058000C3439B0715D103B0F0BDD0240425424BD3
:1005900001A924060B800222A56106F005FD0A20B0
:1005A000656100F0D7FF1420FFF724FFC3439B07CA
:1005B000E9D0354CE3689B0702D5E368DB064FD5ED
:1005C000344803F0BBFE354803F0B8FEDBE7D02427
:1005D0000425334B01A924060B800222A56106F0F5
:1005E000E3FC0A20656100F0B5FFBCE7D024582386
:1005F000042501A924060B800222A56106F0D4FC83
:100600000A20656100F0A6FFA3E7D0240425254B4E
:1006100001A924060B800222A56106F0C5FC0A2070
:10062000656100F097FF8AE7D02404251E4B01A9DD
:1006300024060B800222A56106F0B6FC0A20656143
:1006400000F088FF71E7194B01A90B803000A7610A
:10065000013206F0A9FC0A20676100F07BFF59E730
:100660006A462823D02513710323042603432D064D
:10067000537120000222AE6101A906F095FC0A2008
:100680006E6100F067FF9EE700C0034040420F002C
:10069000AE12002018700010223D000034700010CF
:1006A0002A4000005A1E0000563E0000548DFFFFF5
:1006B00070B5322403F044FF134D280003F03EFED2
:1006C000013C642000F046FF002CF6D1FFF7E4FE69
:1006D0000120FFF78FFE06210920FFF765FE0721A5
:1006E0000920FFF761FEFFF713FE0920FFF782FEE6
:1006F00008210920FFF758FEFFF70AFE0920FFF73F
:1007000079FE002070BDC04644700010094A10B543
:1007100094464024830063441A68C00062408034D9
:1007200014408022520113431C60034B9C466044DA
:10073000416010BD04C00140004001400123D022AF
:100740008340120693629361094A402194468300D4
:1007500063441A68C0004A4080311140802252012F
:1007600013431960034B9C46052360444360704764
:1007700004C001400040014070B5EFF3108C72B628
:100780000D4D2B68002BFCD0BFF35F8F0724CB08E7
:10079000C618C05C01230C40A3401C000440034267
:1007A00007D118433070BFF35F8F2C608CF3108833
:1007B00070BD100001F050FB2C0100D0F8B5474689
:1007C000CE46884680B5EFF3108C72B6214D2C686A
:1007D000002CFCD0BFF35F8F9A422CD8D408072797
:1007E000055D061901241740BC402C421FD007218B
:1007F0000127894609E0D408055D06194C463900F1
:100800001440A1400C00294211D001329342F2D28F
:1008100001204042BFF35F8F00220E4B1A608CF321
:10082000108800280FDBC0BCB946B046F8BD254390
:1008300010003570EEE7BFF35F8F00232B608CF361
:100840001088012040424346002BECD0089801F06C
:1008500003FBC0462C0100D0024B18688007C00F74
:100860007047C04600C006400021044B044ABFF355
:100870005F8F02C39342FAD17047C046000100D097
:10088000800100D0044A1078431CDBB2172B00D93A
:10089000102313707047C0463004002010B5064B7B
:1008A000064C82B00100009318221F232000FFF79E
:1008B00085FF02B010BDC04668700010C40C002057
:1008C00001238340002904D0034A1360034A1360C4
:1008D0007047034A1360FBE780E200E000E100E0BC
:1008E00080E100E001238340014A13607047C04665
:1008F00000E200E0084B10309B688000C358002BDA
:1009000007D0064A00209B1A2F229A424041C0B2CB
:1009100070470020FCE7C04600ED00E034040020F2
:10092000024B10309B688000C058704700ED00E01B
:1009300070B50D00EFF3108672B60F4A1368002BE6
:10094000FCD0BFF35F8F0D4B10309B6884001B59A8
:100950000B4A934203D09D4201D001F095FA074B18
:100960009B681D51BFF35F8FBFF35F8F0022024B67
:100970001A6086F3108870BD240100D000ED00E0FD
:10098000CD010010F0B557464E46DE464546E0B56F
:1009900085B0060000911700EFF3108B72B66B4A1A
:1009A0001368002BFCD0BFF35F8F0025684B5D57A9
:1009B0009A46002D00DA8CE06B00664C01935B19BF
:1009C0009B009846A146C1444B4652469B7910363F
:1009D0001370614BB6009B6899590B1B2F2B33D9B1
:1009E0005E4B994200D0ADE0019B42469C465C4B79
:1009F0006544AD0063535B4B0232A218043B9B1A63
:100A00001B05594A5B0D651913436B80574B012138
:100A1000AB80FF23AB71009BEF71AB604B460B4388
:100A200019004D4B9B689951BFF35F8FBFF35F8FE8
:100A30000022464B1A608BF3108805B0F0BCBB4611
:100A4000B246A946A046F0BD01200A008243D379F0
:100A50008C46BB4231D84546130045491B1B5B41C0
:100A60005943090D3E4B63533E4B02356519043B18
:100A70005B1B1B053C4D5B0D2B43AA464D466B8013
:100A80000425AC465546E044131F44441B1B1B057C
:100A90005B0D1D434B46997100999D8099604946B5
:100AA000DF71344B01431360BBE75800C01880006E
:100AB0002018C179B94212D902000623D356002B5F
:100AC000F3DA0293131D9A46BD231B02614603937A
:100AD00019E001F0D9F9002553465D576CE790887D
:100AE00002934005131D9A46031561469C464046F5
:100AF000D444634604302018181AE0230005400D42
:100B00001B021843039004235B429C46E144504679
:100B10004B461B1A1B055B0D9C46134B9571984663
:100B20006346404603439380019B5A199200039BFE
:100B3000A418A380029B0F4AA371009B2260E77157
:100B4000A3606EE701F0A0F94EE7C046240100D093
:100B5000AF1200203404002000ED00E0CD010010B1
:100B600000A1FFFF6404002000E0FFFF00BDFFFFC5
:100B7000AAAA000001488047F0B5DE4657464E4617
:100B80004546E0B50C0083B0EFF3108A72B6604AB8
:100B90001368002BFCD0BFF35F8F10229146814475
:100BA0004A465C4B96009B689D595B4B98469D421C
:100BB00005D0A54216D0594FEB1B2F2B14D9554BFE
:100BC0009B689D51BFF35F8FBFF35F8F0022504B37
:100BD0001A608AF3108803B0F0BCBB46B246A9463F
:100BE000A046F0BD1D00EAE7012383409B465A461C
:100BF0004B4B1B681A4000925A464A4B1A60BFF38F
:100C00005F8FFFF730FB031E01901DD12A000133D7
:100C10009A439068844208D171E04B005B189B00B6
:100C2000FB189868A04245D01A00062151560029A9
:100C3000F3DA84426AD0009B002B34D05A463A4BF8
:100C40001A60374B1A60BAE7814530D12A00012378
:100C50009A4390688442E8D1062151561300002936
:100C600040DB4A00501880003C188046A06898601D
:100C7000E079D87106202056987100282FDBA488CF
:100C8000F81A6405241544440019E0240005400DB9
:100C90002402204398805318244A9B001078FB18A4
:100CA00098711170C7E75A461E4B1A6087E701F02A
:100CB000EBF8CBE7062159560029D2DA0199002931
:100CC00010D1FF3191711A49918018490A789A71AF
:100CD000184ADB1B5B415A43120D0A70ABE7BD207B
:100CE0000002D7E7144A1549D21A083A5002400DBB
:100CF00001439980124952080A43DA809BE7062192
:100D0000515613000029ACDA4546DEE71300D5E75B
:100D1000240100D000ED00E0CD01001034040020DB
:100D200000E100E080E100E080E200E0AF1200209E
:100D300000BDFFFFAAAA00006E04002000F0FFFF24
:100D400000F8FFFFF8B5012504000543FFF78BFA13
:100D5000EFF3108C72B6214A1368002BFCD0BFF35E
:100D60005F8F1F4E2100B7681E4A1F4B891A4941E9
:100D70004B431B0D59B28300F858A8421CD00623E0
:100D8000D3568B421CD01223D3568B4222D01E2323
:100D9000D3568B4220D02A23D35603208B4210D027
:100DA000124B1A781970A271BFF35F8F00220B4BA0
:100DB0001A608CF31088F8BDB2680D48D050EFE788
:100DC000002043001B189B00D218FF239371094B8E
:100DD0009380E5E70120F4E70220F2E7240100D048
:100DE00000ED00E034040020AAAA0000AF120020A9
:100DF000CD01001000BDFFFF054B064A1360064AF7
:100E0000136053609360D3601361536193617047C3
:100E10008080808000E400E004E400E0D02300B59E
:100E20001B061B680100074883B01818064B0022F8
:100E300000930523FFF7C2FC002801DB1F23181ACB
:100E400003B000BDA812002084700010024B9C4625
:100E500061448900016070474000003483680B489A
:100E600010B58446614462441201090159189B1867
:100E70005C684A680120944201D802D00020C0B2C8
:100E800010BD1A680B689A42F9D8F7E7FFFFFF0F09
:100E90000A4B1968EFF3108072B60A68002AFCD07A
:100EA000BFF35F8F1B68BFF35F8F00221A6080F370
:100EB000108840BF002000217047C04678120020F3
:100EC000F8B5574645464E46DE46E0B598460CAB6B
:100ED0001C780DAB1B78070091469A460568002CDC
:100EE0005ED1AC7B002C3BD0660029683619033EEE
:100EF00089194B78AB73002B00D1EB7300238B70F7
:100F00004B700B702D4BE218BB6812019B184A46C0
:100F10001A6042465A600A9A9A600B9ADA60002375
:100F20008B704B700B706B7B9B46002B2BD0220081
:100F30005946A8686B6898472A68002816D05B460F
:100F400058465B005B449619033BB070D118D35CE4
:100F5000002B00D073705B460C706B735C4513D034
:100F6000F0BCBB46B246A946A046F8BD5B465B0056
:100F70005B44033BD3189C709119925D002A00D00A
:100F80005A705B460B706C734A464346387D00F0DE
:100F90002DFC051E0AD10E9B002BE1D01D70DFE752
:100FA000660029683619033E8919ABE75346002BC2
:100FB000F1D12100386800F06FFEECE7FFFFFF0F72
:100FC000F0B5DE4657464E4645460023E0B58DB0A7
:100FD0000A936A4B8200D75800239B460B9000F07F
:100FE000A5FB02000B007868EFF3108972B64D463E
:100FF00001680029FCD0A946BFF35F8F39684E7B9A
:101000008C46002E2ED0BC685D49A246711809019D
:101010008A4451460868496804000D00A41A9D419D
:10102000002D5EDD02000B000B9800F0DFFB0023BB
:1010300000229A46002308920993002398467B6871
:10104000BFF35F8F5A461A6089F310884346002B1E
:1010500012D10028C3D10DB0F0BCBB46B246A946A0
:10106000A046F0BD002300229A460023089209936F
:10107000002300209846E2E70A9B514618023043BD
:10108000C047069007917A68EFF3108572B6544610
:101090001368002BFCD0A246BFF35F8F0699079A16
:1010A000002A3BDB114302D03B69002B52D13B6845
:1010B000D97B002905D01A68480041185218033A14
:1010C0005670DE73FA68013E935D013393555B46BB
:1010D0003B617B68BFF35F8F5A461A6085F31088C7
:1010E0007DE7002D01D1002C9CD10021604600F04D
:1010F0003BFD53465C681B680893099453469B6804
:1011000098465346DB689A46FB689B19013B1B785F
:101110000A931B0203433B61002090E73B69002BCD
:10112000C5D0089B099C5B1A9441089809991A003C
:101130002300A14219D899421BD00021049101310A
:101140000391514601914146380002960091FFF704
:10115000B7FEBCE700F0EAFA069A079B12184B416B
:10116000994202D8E9D19042E7D901225242D317DD
:10117000E3E708999142E0D9F7E7C0465C11002007
:10118000FFFFFF0FF8B557464E464546DE46E0B531
:10119000404D824689466A68EFF3108872B613683C
:1011A000002BFCD0BFF35F8F2E68B47B002C48D09F
:1011B000670033683F19033FDB195A78B273002A7E
:1011C00000D1F273344AA118AA6809015218514695
:1011D000116049465160314991600021D160997098
:1011E00059701970737B9B46002B45D022005946DD
:1011F000B068736898473268002830D05B4658461C
:101200005B005B44D719033BB870D118D35C002B4B
:1012100000D07B705B460C7073735C452DD000264C
:10122000EB681B19013B19786B68BFF35F8F0022D5
:101230001A6088F310880020002E0AD1080220438B
:1012400007E06B68BFF35F8F1C6088F31088012094
:101250004042F0BCBB46B246A946A046F8BD5B463C
:101260005B005B44033BD3189C70D119D25D002A0C
:1012700000D05A705B460B70747352464B46287D03
:1012800000F0B4FA061ECAD02100286800F004FD60
:10129000C6E7C0467C040020FFFFFF0F910E001040
:1012A00010B5124C6368002B04D00A211048FFF7D8
:1012B000CDFD10BD23000F4A1021206800F054FB23
:1012C000032000F027FA032000F0FEFA03200A4969
:1012D00000F046FAFFF7D6FA084B9C460323604419
:1012E0002375074B80006060DC60DEE77C04002033
:1012F000781200205D0E0010C10F00104000003475
:101300005C110020004870477C040020F0B557466F
:101310004E464546DE46E0B585B0019310AB1B78DE
:101320000600039300239A46984600927268EFF3F2
:10133000108B72B61368002BFCD0BFF35F8F35683B
:10134000AC7B002C6BD067002B683F19033FDB1987
:101350005A78AA73002A00D1EA73524AA118B268D7
:101360000901521800980199106051600E9991601E
:101370000F99D16042469A705A701A706B7B9946E9
:10138000002B00D175E022004946A8686B68984799
:101390002A68002860D04B4648465B004B44D7196A
:1013A000033BB870D118D35C002B00D07B704B4648
:1013B0000C706B734C455DD0F3681B19013B1878BA
:1013C0007368BFF35F8F42461A608BF310885346F1
:1013D000002B08D10002204305B0F0BCBB46B2464A
:1013E000A946A046F0BD039B002B59D00E9B0020C0
:1013F0000F999847030004000D000B4350D00029BB
:1014000016DA0098019902000B00121BAB419942B9
:101410001CD83CD000920193039B9A4686E77368E0
:10142000BFF35F8F1C608BF3108801204042D3E72D
:1014300000F07CF902000B00A4185D4100940195B6
:10144000A94203D8E8D100998A42E5D901235B4239
:10145000DC1700930194DFE74B465B004B44033BF2
:10146000D3189C70D119D25D002A00D05A704B4617
:101470000B706C73307D009A019B00F0B7F98246C7
:10148000002899D02100306800F006FC94E700990C
:101490009142BFD901235B42DC1700930194BBE763
:1014A000002099E7FFFFFF0FF0B504000D000626AE
:1014B0007642F717C64636196F4100B58F4213D8EA
:1014C00010D000F033F932003B00121A8B41002B90
:1014D00014DC002B37D02900200000F031F980BC4B
:1014E000B846F0BD8642ECD90026002700F01EF970
:1014F00032003B00121A8B41002BEADD300039002C
:10150000FFF740FE0028E6DB00239846BC460F4A62
:101510000F4F7B6A9C4504D8B96AB142DBD29C4527
:10152000D9D11168EFF3108072B60B68002BFCD094
:10153000BFF35F8F1368BFF35F8F4146196080F37D
:10154000108820BFE5E7002AC5D0D7E77812002031
:101550000040054070B5060000F0E8F8FA220400EB
:101560000D00002330000021920002F0A3FD0019BD
:1015700069418D4205D802D0FFF796FF70BD8442C5
:10158000FAD901204042C117F6E7C046F8B5CE4669
:10159000474680B505000C00FFF7F4FD031E0CDC88
:1015A0002C4A0020536A9C4203D8926A0130AA4216
:1015B0003ED3C0BCB946B046F8BD20BF264E7168C8
:1015C000EFF3108772B60A68002AFCD0BFF35F8F72
:1015D000DAB294463068427B624533D0FF2201681C
:1015E0001A4089465100884649469044414403398F
:1015F0008978002921D0F1681B0A8A18013A1278EB
:10160000DBB29A4221D07368BFF35F8F00221A6069
:1016100087F310880F4B00205A6A9442C9D89B6AFE
:101620000130AB42C5D2A01A431E9841C0B2C0E7F8
:10163000E31A5A1E9341D8B2BBE732699342E2D112
:101640003161E0E7FF221A40D5E7614600F024FB54
:10165000D9E7C046004005407C040020F0B5D646DE
:101660004F464646C0B5EFF305823F2313401800AE
:101670001038EFF3108C72B620490A68002AFCD0AB
:10168000BFF35F8F0122170087401D4C1600A24652
:1016900067631C4C2578A0462C00C440264022429B
:1016A00015D05246566A184A8400A258964218D35A
:1016B0004246164BBD43E3581570BFF35F8F0022BF
:1016C0000A608CF31088002B06D0984704E0BFF323
:1016D0005F8F0E608CF31088E0BCBA46B146A84616
:1016E000F0BD0B4A9B00904643441A681A60BFF352
:1016F0005F8F00230B608CF31088EDE7280100D08A
:1017000000400540B212002084120020B40B0020DB
:10171000D03F054010B5034B01001800024AFFF707
:101720002BF810BDAD120020A0700010034B596AB9
:101730000A00986A596A8A42FAD170470040054007
:10174000064A536A9942FCD807D1044B02E05A6A10
:10175000914202D19A6A8242F9D370470040054013
:1017600070B504000D00EFF3108672B61A4A1368C4
:10177000002BFCD0BFF35F8F002D1BD02000FFF7A4
:10178000CFF8164981420AD02000FFF7D1F8012195
:101790002000FFF795F80123A340114A1360114B75
:1017A000A400E550BFF35F8F00220B4B1A6086F355
:1017B000108870BD0121A1400A4BA200D5500A4BF0
:1017C00020001A788A4305491A70FFF7D5F90021DD
:1017D0002000FFF775F8E5E7280100D05D1600103E
:1017E00038600540B40B0020B2120020F0B54F461F
:1017F000D6464646C0B507002E4C616A0D00A66A63
:10180000616AA942FAD18B4208D805D00120E0BC18
:10181000BA46B146A846F0BDB242F7D9EFF3108AF6
:1018200072B6254801680029FCD0BFF35F8F0125FF
:10183000BD4022491F4C8846097889462943C9B2D0
:101840008C46414660460870391D890065630A511F
:101850001B49B8004350216A0020294219D0616A0F
:101860000800A66A616A8142FAD18B4219D801D177
:10187000B24216D8CC450BD00E4B1F221D625D63C1
:1018800001233A4093400F4A136043464A461A7078
:101890000120BFF35F8F0022074B1A608AF3108884
:1018A000B5E70020BFF35F8F0022034B1A608AF375
:1018B0001088ACE700400540280100D0B21200209B
:1018C0008412002080E200E0EFF3108C72B60A4927
:1018D0000B68002BFCD0BFF35F8F01238340074AC6
:1018E0000748136202789A430270BFF35F8F0023A8
:1018F0000B608CF310887047280100D00040054031
:10190000B212002070B505000E001400002923D08B
:10191000002A12D080686B689847296800280ED08A
:1019200063001B197200033B9219CB18033A9E7097
:1019300088188A5C002A11D10470300070BD7300D1
:101940009B196200033B1219CB18033A9C7088184C
:101950008A5C002A05D106702000EFE75A700470F7
:10196000EBE75A700670F7E730B583600023CCB21E
:1019700043730133047342608373C4730D000068C2
:10198000012C06D9421C0133DBB2137003329C4296
:10199000F9D1FF2129404B005B18C0180023033800
:1019A000437030BD70B505000C1E07D063000168A0
:1019B0001B19033BCB185A78002A01D1200070BDB7
:1019C000500080180338091800204E784870210014
:1019D00058702800FFF796FF310004002800FFF739
:1019E000E1FF0600002C26D00028E7D021003200BD
:1019F000A8686B689847296800280ED073009B1967
:101A00006200033B1219CB18033A9C7088188A5C59
:101A1000002A00D05A700670D0E763001B197200CC
:101A2000033B9219CB18033A9E7088188A5C002AEF
:101A300000D05A7004703400C0E7C046F8B557466D
:101A40004E464546DE464C00E0B564181700026875
:101A5000033C0500105D13190E009C46002852D06F
:101A6000430098461B18033BD31859788A4600292F
:101A700019D1002F0CD0EC7B002C50D063001B1927
:101A8000D318033B5E70EE7343461918033953189D
:101A900000229A70002362465370F0BCBB46B246E7
:101AA000A946A046F8BD490051440339521851785F
:101AB000884600215170894659705246010028001D
:101AC000FFF720FF43468246002B07D05B002968C2
:101AD0004344033BCB185A78002A2CD15146424646
:101AE0002800FFF70FFF0100002F1AD0A4462A6834
:101AF000EF7B9444002F04D07B00DB19D318033B09
:101B00005E70EE7310E0002FC4D0E97B002910D086
:101B10004B005B18D318033B5E70EE73BAE7EE73AD
:101B2000B6E7A4462A6894440029B3D04B009846EF
:101B3000AAE7EE73AEE7500080180338091848781A
:101B4000834648464870587041462800FFF7DAFE41
:101B5000594680462800FFF725FF4146020028002D
:101B6000FFF7D0FE8046B9E7F8B557464E464546E2
:101B7000DE46E0B5467B02687500AD19033D0F00F7
:101B8000515D531904009C46002953D04B009846E0
:101B90005B18033BD3185878824600281BD1002FCE
:101BA0000CD0E57B002D51D06B005B19D318033BA3
:101BB0005E70E673434658180338131800229A7073
:101BC00000236246300053706173F0BCBB46B246DE
:101BD000A946A046F8BD400050440338121850787A
:101BE0008046002050708146587052462000FFF712
:101BF00089FE43468246002B07D05B0021684344A0
:101C0000033BCB185A78002A2CD15146424620007B
:101C1000FFF778FE0100002F1AD0AC462268E77B60
:101C20009444002F04D07B00DB19D318033B5E7073
:101C3000E67310E0002FC3D0C07B002810D0430013
:101C40001B18D318033B5E70E673B9E7E673B5E77C
:101C5000AC46226894440028B2D043009846A9E7D5
:101C6000E673ADE7500080180338091848788346BA
:101C700048464870587041462000FFF743FE5946D9
:101C800080462000FFF78EFE414602002000FFF74D
:101C900039FE8046B9E7C04670B5050000292CD052
:101CA000437B8B422ED04C0000686418033C04191F
:101CB000A278002A21D053009B18033BC25CC618AF
:101CC0008A4202D11BE0002A08D053009B18033B34
:101CD000C3185A788A42F6D162785A7000230122DA
:101CE0002800A3706370FFF7A9FE697B020028003B
:101CF000FFF708FE6873012000E0002070BD6378E4
:101D00003370EBE701221900FFF798FEF2E7C046B7
:101D100010B50400FEF7B6FD01002000FFF796F8AD
:101D2000FF232371BFF35F8F10BDC04610B50400C1
:101D3000FEF7A8FD01002000FFF788F8FF23A3802D
:101D4000BFF35F8F10BDC04610B504000120FEF741
:101D5000A5FD034BC3189B002360BFF35F8F10BD2D
:101D6000400000342C4B2D4A70B51A602C4A2D4B84
:101D70002D491A6014008B689C43FBD12B4D2C4ECF
:101D8000B54208D2013E761BB60808CD984723001D
:101D90000134B342F9D100F07DF8264A214B1A6094
:101DA000214A9368DB43DB01DD09002BF9D1402296
:101DB000214B224C224E9A675A671A67DA66B44260
:101DC00008D223682000002B20D00834FFF7AEFF94
:101DD000B442F6D31B4C1C4EC022B168200002F066
:101DE000C5F9B460FEF740FDFFF706F8FFF758FAB3
:101DF000164C174EB44208D2013E361BB60808CC2A
:101E000098472B0001359E42F9D170BD0834FFF789
:101E10007FFFB442D5D3DDE700E00040BFCDFBFE3D
:101E2000FE7F3C0000F0004000C00040180500208C
:101E300028050020FFFFFF0100F0014010050020F1
:101E4000180500200000002000ED00E0280500201B
:101E50003005002000BEFDE70FB400B5084883B090
:101E600002F06CFA049B002B07D005A91800019121
:101E700001F030FD034802F061FA00BEFDE7C04604
:101E8000C4700010DC6F001010B50148FFF7E4FFCC
:101E9000D470001010B50C2082B000F0AFF9FEF73E
:101EA000DBFC002810D0864B86488649864A18609D
:101EB00059609860D960186159619861D961186258
:101EC00059625A6202B010BD804CA06700F0ECF974
:101ED00001227F4B1A60636C012BFCD103227D4BE6
:101EE0001A607A4A936B012BFCD1013301217A4AA3
:101EF0007A480093043300F02DF90523784A0093C3
:101F00000121784800F026F9774B5A68FF2A02D859
:101F1000802252005A6080226E4B694C12011A6076
:101F20002169002905D0606901F04EFD01300138BA
:101F3000FDD1E0226C4B6D4819680A400260022214
:101F40001968514001320A40042102609A68114226
:101F5000FCD08021664A09011160802252005A603B
:101F6000644B2361644B5968FF2900D85A600322EF
:101F70000121574B1A60604A93681942FCD0E02354
:101F8000106803405D480360126803234A40022141
:101F90001340594A036093681942FCD08021584B82
:101FA000090119608021574B490051606361564B0C
:101FB0005A68FF2A00D859608022544B12011A60D7
:101FC000E169002905D0606901F0FEFC01300138AB
:101FD000FDD1E0234C4A11680B404D490B60802134
:101FE0004C4B090119608021364B49005160E36177
:101FF000494B5A68FF2A00D859608022474B12018A
:102000001A60216A002905D0606901F0DDFC013009
:102010000138FDD1E023404A11680B4040490B6074
:102020008021404B0901196080235B0053608022AE
:10203000244BD20223623C4B5968914200D25A6031
:1020400080223A4B12011A60616A002905D060694A
:1020500001F0BAFC01300138FDD1E023324A1168A9
:102060000B4033490B608021324B090119608023FA
:10207000DB025360144B63622F4B5A68FF2A02D86D
:10208000802252005A6080222C4B12011A60A169F2
:10209000002905D0606901F097FC01300138FDD1BD
:1020A000E023254A11680B4025490B608021254B10
:1020B0000901196080235B005360124BA36101E7A3
:1020C00030050020006CDC021BB7000000800040DF
:1020D0003CB0004030B00040002F68590080024002
:1020E000008C864700C002403080004030900040A5
:1020F00030A00040001BB7003C8000403C900040F6
:102100003CA00040405973075480004054B0004048
:102110005490004054A000406080004060B00040F7
:102120006090004060A000406C8000406CB00040B7
:102130006C9000406CA000404880004048B00040D7
:102140004890004048A00040014B8000C0587047B4
:1021500030050020F8B504000C2017001D000E000B
:1021600001F032FC43011B1A9901C91AC900091870
:102170008901380001F028FC069B29041B03194340
:102180002368002B20DB194B194DE3185A425341A9
:102190008022520194461B03164A63441360164A78
:1021A00013601F00AA689743FBD1C023221D9B0127
:1021B000134321222660A0601A602268002AFCDAFC
:1021C0000822E1601A60F8BD3F2322681340B34241
:1021D000D9D1A3681B051B0D8342D4D1EE22E3683D
:1021E000D20213408B42CED1EDE7C0460040FDBF86
:1021F00000C0004000E0004000F000408023024AA0
:102200009B000343D36270470080054010B58024D3
:102210001C4BE4051C6000281AD001231A4C1843FB
:102220001A4BDC611A4C44401C625962986280214E
:10223000144BC9051960174817490860E021C90403
:102240001960002A07D18022144B12061A6010BDB3
:102250000E4BD861EBE753019B1A9B009A18802321
:1022600012015B049A4209D213000D490B60074B1F
:102270005A608022094BD2051A60E8E7094B1A0020
:10228000F3E7C04600B00540D3C007B0008005406A
:102290002D3FF84FFCFF01000820014000A0054041
:1022A0003C110020FFFFFF00AA23064A1B01136018
:1022B0002F230549D360054B19605368002BFCDAC6
:1022C0007047C0460040024000B0FA000060024083
:1022D0007047C046F8B557464546DE464E46E0B51F
:1022E00098460A9B06009A460D9B0F0093461500E0
:1022F0009B0710D10B9B0C9A93420CD213005C46A7
:102300000B9A9D1A5D442200434601343900202077
:10231000B047A542F7D10B9C6319002C09D01D00D2
:1023200053462A1B013C185D39004346B047002C38
:10233000F6D10D9B9B070ED55B46EC1A0C9BA34276
:1023400009D999462A004346390020200134B04774
:102350000135A145F6D82800F0BCBB46B246A946D7
:10236000A046F8BDF0B54F464646D646C0B584B047
:1023700098460EAB1B7894469946129B0D9C109F75
:10238000119E9A0724D4002E6AD1BC4220D2012289
:102390001A409246202C00D1CBE00C9A551E3022D8
:1023A00001E0202C30D001342A55A742F9D85246FA
:1023B000002A0DD0B4420BD20C9A551E3022202C8C
:1023C00002D126E0202C61D001342A55B442F9D143
:1023D000DA0634D55A0562D4002C5CD10F9A102A43
:1023E00000D191E0022A00D1A1E030220C9C2270A1
:1023F00001244A46002A5CD15A0700D47DE02B22F2
:102400000C9D2A5501341CE05246002A02D0202E91
:102410003CD92024DA0614D55A0512D4202F00D135
:1024200097E0202E3BD120261F2234000F9D102D37
:1024300000D181E0022D4CD030250C9FBD54202CC2
:10244000D7D103930C9B62460093029643460194B6
:10245000FFF740FF04B0E0BCBA46B146A846F0BD65
:10246000012215001D40AA461A4227D04A46002ADA
:1024700033D10C321A4230D1BC429BD2202C00D036
:102480008BE7202EC5D8DA06A4D4DAE72024DA06B2
:10249000D7D55A0503D4A74221D0B4421FD00F9AF2
:1024A000102A21D0022A10D0202CCAD022000134B8
:1024B000C2E72D220C9D2A550134C2E7BC4200D34D
:1024C00086E7202C00D068E7E1E7202CB9D0220075
:1024D000013462250C9FBD54E6E7013ECCE7621E45
:1024E000012C00D17AE7A1E79A0616D4202CA8D0B7
:1024F00078220C9D2A550134D6E71A07A1D520224F
:102500000C9D2A5501349CE79A060ED478220C9C27
:1025100022703022627002246BE7202C91D0582563
:102520000C9A121915700134BEE75822EFE76222A7
:10253000EDE7002AA7D1AAE7023C9D0604D478253E
:102540000C9F3D551400B1E758250C9F3D551400D4
:10255000ACE71F226AE7C04610B5002800D110BDC5
:1025600001F09AFEFBE7C0460B0010B5002802D030
:1025700049681B68984710BDF0B557464E4645461A
:10258000DE46E0B599B08246894690460993229A84
:10259000239B1000190001F0D0FC002800D0C8E0F7
:1025A000229823990122D54B524201F0C1FC002808
:1025B00000D0BEE0229823990122D14B524201F073
:1025C000A9FC002800D0B4E022982399002200231F
:1025D00001F0A0FC002800D0E9E1229E239F802387
:1025E000269ADB001A400D92269A1A4201D1062340
:1025F00024933B00334300D0B4E0269B1B0500D559
:10260000BFE1002300240A930B94002304250C93BC
:10261000259B0024AB4200D95C1B0223269A1A405A
:102620000D92269A134203D06B426B415B421C40D1
:102630000C9B002B07D00A9A0B9B3000390001F04D
:1026400010FC06000F00229823990022002301F0BD
:1026500061FC002803D0802109067B181F00269A00
:10266000A84B009601971340099E0493249B039462
:102670000293424633004946504600F0A7F9040051
:10268000002D67D02020269A4946024013005A4266
:1026900053415B42621C18400A92330022004530CD
:1026A000D0470C9A6F1ED317D4185C40D30F9B46AB
:1026B000002501E0202D13D008AA94461F232000F6
:1026C00063440A2101355E1901F07EF93031317021
:1026D00020000A2101F078F926000400092EE9D82B
:1026E00005230693002304930A3303935B46099E54
:1026F000029310AB0A9A009349463300504605975F
:102700000195FFF72FFE0D9A0400002A22D04246C1
:10271000851A259AAA421DD9B046574616002200AE
:102720004346494620200135B8470134AE42F6D829
:1027300010E0269B42460493259B49460393249B25
:1027400050460293229B239C00930194099B00F026
:102750003DF90400200019B0F0BCBB46B246A946C2
:10276000A046F0BD684B78009C46400D604401F0E7
:10277000F7FB664A664B01F08EFB664A664B01F03A
:102780006BFB664A3B031B0B1A4304000D00644BB2
:1027900011003000002201F05AFB624A624B01F046
:1027A0007AFB02000B002000290001F055FB01F02C
:1027B000EFFB0C9001F0D4FB5C4A5D4B04000D0074
:1027C00001F069FB00225B4B01F046FB01F0E0FBEE
:1027D000594A8346594B2000290001F05CFB040054
:1027E00058460D0001F0BCFB554A564B01F053FB17
:1027F00002000B002000290001F029FB02000B0061
:102800000A900B9101F047FB04000D000A980B9908
:1028100002000B0001F020FB00220E900F914A4BAA
:102820002000290001F01DFB0022484B01F014FBA1
:1028300002000B002000290001F013FB0022444B92
:1028400001F00AFB02000B002000290001F009FB47
:102850000A9A0B9B0D0080210400C905002001F09D
:10286000F6FA02000B002000290001F0F5FA394CBD
:1028700002000B000E980F9901F0F3FA5C4400225D
:10288000264B01F0E9FA2305002201F004FB0400C5
:102890000D0002000B00300039000A940B9501F086
:1028A00039FB00285ED123002A00C6250C9963312C
:1028B0008D42AD4126996D420435090500D4A7E645
:1028C000134364D030003900234A244B01F028FB25
:1028D000002807D0002230003900214B01F01AFBFC
:1028E000002854D1249B002B00D191E60D9B5A1E49
:1028F0009341249AD31A24938AE6C046FFFFEF7FC0
:10290000FFFFEFFFFFF7FFFF01FCFFFFFB799F5089
:102910001344D33FB3C8608B288AC63F0000F03F02
:102920000000F83F61436F63A787D23F71A3790925
:102930004F930A400000E03F1655B5BBB16B024013
:10294000EF39FAFE422EE63F00002C400000244002
:1029500000001840FF0300002D431CEBE2361A3F35
:1029600080842E410C9B0022013B0C932000164BCF
:10297000290001F076FA0A00010003000A910B9287
:1029800093E7002300240A930B9400230C93249ACA
:102990000C9B9A4214DDD31A013B24938023269A80
:1029A000DB001A430023002526920C9330E6802298
:1029B00012069446229B1E00239B63441F000EE6D2
:1029C00000232493EAE7C04600002440F0B54546C2
:1029D000DE464E465746E0B595B08B469046994642
:1029E0001E9A1F9B0A9019001000209D01F0A5FA65
:1029F000002800D0B0E11E981F990122C74B524217
:102A000001F088FA002800D037E11E981F990122B2
:102A1000C34B524201F08CFA002800D0A7E01E9868
:102A20001F990022BF4B01F083FA002800D088E0F4
:102A30001E981F990022BC4B01F06CFA002800D0B0
:102A40007FE01E981F990022002301F063FA0028FE
:102A500000D0FAE000230B938023229C229ADB0013
:102A60001C401A4200D102E1092D00D87EE106A9DE
:102A70008C462C00172200233021093C624401338C
:102A8000D154EF1A202B00D132E1A342F7D100221A
:102A9000A44B069207931E981F9901F079FA05003E
:102AA00001F05EFA02000B001E981F9901F0CFF9A9
:102AB000069A079B01F0EFF90890099101F08CFA52
:102AC000060001F049FA02000B000898099901F08C
:102AD000BEF90022954B0890099101F029FA0028CF
:102AE00000D1D2E00136300001F036FA069A079B99
:102AF00001F016FA002801D000260135AA46002F61
:102B000000D098E0280001F02BFA02000B001E987C
:102B10001F9901F09CF9854B002206000F0001F07F
:102B2000F9F90CAB9A46002845D100223000390053
:102B30007E4B01F0FDF900283DD1EB073BD5013577
:102B400039E0229B42460493219B594603930A98FD
:102B50001E9B1F9C0295009301944B46FFF70CFDB2
:102B600015B0F0BCBB46B246A946A046F0BD229BBC
:102B70005B0767D403226E4B22990192039121993E
:102B80000291009342464B4659460A98FFF7A2FB32
:102B9000E6E706AA94461723280063440A21013475
:102BA0001E1900F0E9FE3031280031700A2100F0D2
:102BB000E3FE051E76D0202CEBD10323229A13408E
:102BC000012B1DD1219B002B1AD00B9B002B00D079
:102BD000BBE0229A0C33134200D0B6E0219BA34203
:102BE00000D887E006AB9C4617223023624404E0FD
:102BF0002199013413558C4259D0202CF8D120242E
:102C0000229B01940393219B02935346B9E706AAA2
:102C1000944617230A216344300001341D1900F043
:102C2000D3FE3031297030000A21013F00F0CCFE84
:102C3000092E46D90600202CE9D155460CAB20249C
:102C40009A46B8E704223B4B96E71E9A1F9B00204A
:102C5000002101F0FCF801230B938023229C229A8F
:102C6000DB001E901F911C401A4200D0FCE600229F
:102C7000314B0627069207930DE7229B0393219B76
:102C80000293042301932D4B7BE7002208980999B6
:102C9000264B01F03FF9002800D02FE7002E4FD13E
:102CA00001362BE70323229A1340012B68D0202CF6
:102CB000A6D00B9B002B1FD02D2352461355013459
:102CC0009EE75546202CB9D030223B19002F4BD01F
:102CD000172006A9013409180A55202CAED09C42B1
:102CE000F6D10CAA92462E2251465C1CCA5462E7C9
:102CF0002024CCE6202C83D0229B5B0708D4229B87
:102D00001B0700D47CE7202352461355013477E794
:102D10002B2352461355013472E7C046FFFFEFFFE5
:102D2000FFFFEF7F65CDCD4165CDCDC10000E03F18
:102D3000E8700010E070001080842E41F0700010E8
:102D4000F30700D4DAE60136D8E6219B013B219354
:102D5000A34200D946E7AAE7229B0393219B029353
:102D600003230193084B0CE72300BAE7074BEA0063
:102D70009B185C681B682F000693079400248AE662
:102D8000219B002B93D020E7EC700010987200106C
:102D9000F0B5DE4657464E464546E0B59FB01C00AE
:102DA000289B93460A93CC4ACC4B8A4609901A60DA
:102DB000002900D14DE1002320789946002800D158
:102DC0004FE1C74B4D460893C64B0D930AE02A00CE
:102DD0006E1C5B46099D5146A8473500013420789A
:102DE000002872D02528F2D110239946083B984636
:102DF000043B00219C460227013420782600030072
:102E0000203BDBB2102B03D8089A9B00D3589F4677
:102E10000300303B092B6ED900272A2800D18AE015
:102E200000230B932E2800D176E00300683BDBB231
:102E3000122B1BD8AC4C9B00E3589F460123013456
:102E40001943DAE739430134D7E7634601341943BC
:102E5000D3E74B4601341943CFE7434601341943C6
:102E6000CBE780235B0070781943013667280AD8C6
:102E700024281FD90300253BDBB2422B1AD80D9A18
:102E80009B00D3589F460300693BDBB20F2B11D840
:102E900001249C40954AA446904614400C946246F6
:102EA0004446224200D025E20A2B00D101E1072B43
:102EB00000D1D8E0099C2A005B465146A0477078B3
:102EC0006F1C741C3D0000288CD1A9462C00CB45FA
:102ED00003D801235B425B4499465B464A46514610
:102EE0000020099DA84720001FB0F0BCBB46B24699
:102EF000A946A046F0BD0027BB00DF1901367F00C0
:102F00003F183078303F0300303B092BF4D90023C1
:102F10000B932E2800D088E780237078DB001943BC
:102F20000300303B741C092B00D82CE12A2800D167
:102F300038E1260079E70A9B80CB002F03DB60781D
:102F40000A93661C6CE70222607811437F420A9361
:102F5000661C65E7672800D1C8E1472800D104E274
:102F6000452800D104E207200A9B049107338343DC
:102F700019000B9A039702920CC9099800920193C9
:102F80000A912A005B465146FFF7F6FA741C0500C9
:102F900025E770786C2800D10DE280235B0019438F
:102FA000013663E780239B007078194301365DE7A3
:102FB0007078682800D1F9E180230136194355E77C
:102FC000462800D18FE107200A9B049107338343F1
:102FD00019000B9A039702920CC909980092019369
:102FE0000A912A005B465146FFF7F0FC741C05006D
:102FF000F5E62A00099C5B46514625206F1CA04738
:103000003D00741CEBE6890700D4DEE10A9B2A0030
:1030100098466B1C9946434601CB51469846099CFD
:103020005B46C0B2A047ED19012F00D893E24C4691
:10303000B1465646099F22005B46013431002020EC
:10304000B847AC42F7D1B24643464E460A93741C89
:10305000C5E6274B2078099300239946002800D025
:10306000AFE6002433E70A9B1A0008CA9046002BFB
:1030700000D1A7E0212008430EA98C461F226244FC
:103080000F27AC46814615000C9C02E0202C0CD08A
:1030900013003800184001003731092800D80739DB
:1030A000013429551A090F2BF0D8654648460C946F
:1030B00094E00A9B1A0008CA12920B9A002A7BD14C
:1030C00002241A786442002A1DD0013418199C4643
:1030D0001C00030010E0C046912D001038110020A4
:1030E000F8700010887100103C71001041900000D1
:1030F000D12200109C4203D0607801340028F9D11D
:103100006346E01A0C908020C00084460840804648
:103110006046014204D00B980C9C844200D90C906C
:103120000220844608400A906046084200D189E1A6
:10313000101E00D170E14246002A00D11BE10B9A1B
:103140005B1B9046A84444462A00B8469946574619
:10315000B246099E09E05B463900551CB0474B4614
:10316000585D002800D12CE12A009442F3D1564644
:103170002500BA4647460A9B002B00D04CE1129B23
:10318000741C0A932BE6002293009B185B00013409
:103190001A182078303A0300303B092BF4D9260066
:1031A0000B9242E60A9B023604CBD043C017024082
:1031B0000B9230780A9338E61A78002AA3D00B983D
:1031C000441E82E7102308008027984311331843D8
:1031D0000B00FF003B40394200D14DE70823059327
:1031E0000B9B2A00049310230393002302930C9B50
:1031F0000690019316AB009351465B460998FFF782
:10320000B1F843460500741C0A93E8E5622800D132
:10321000A6E1582800D1B1E180230A00DB001A4062
:103220009046194200D189E1112399438C468023AD
:1032300062469B001A40100062461A4200D023E109
:10324000802364465B001C401A4200D032E2634691
:103250005B0600D56BE163460A991B0600D4DBE2EE
:1032600008C91BB2DA179818504080B20A91DA0FD9
:103270000C92002B00D118E280460EAA91461F2323
:103280004B441395E14645461297B0461E0001E0B7
:10329000202C0FD028000A2100F096FB01343719AA
:1032A0003031397028000A2100F08EFB2F00050014
:1032B000092FEDD84646CC46129F139D63460693D0
:1032C0000B9B059704930A2303930C9B029316AB65
:1032D0002A000194009351465B460998FFF742F893
:1032E000741C05007BE5202319436CE680231B0139
:1032F000194338E6782800D07CE180230A00DB00FF
:103300001A409146194200D1A5E20D2399430800C5
:1033100003330C93802302009B001A40904618420E
:1033200000D078E1802304005B001C40184200D0EC
:1033300007E2430600D453E2FF210A9B04CB0A4074
:1033400090460A934346002B00D026E11033984361
:103350004B46002B00D120E100240B9B06900493E8
:103360000C9B059703930023B0E780231B011943AF
:1033700020231943F7E55B1B99460C9B099C984653
:103380005B46B3465646BA461F002A003B00310052
:10339000A0474B460135585D0028F6D143460C93B3
:1033A0003B005746B2465E469B46E4E6C023B078F3
:1033B000194302365AE5C0239B00B0781943023600
:1033C00054E55646BA464746D5E6012F00D832E2C4
:1033D0006B1E9846B8442C00A9464546B846574649
:1033E000B246099E22005B46013439002020B047D6
:1033F000AC42F7D10A9B564601CBBA46474698469F
:1034000022005B46099C5146C0B2A0474D46434648
:10341000ED190A93741CE2E40C9BA8469F4200D865
:10342000ADE64446B04656467D19099FED1A220086
:103430005B46013431002020B847AC42F7D1B24698
:1034400046469CE60C98874200D8F0E142469846F2
:103450007919B9465746B246099E0C1A0C922A00B1
:103460005B46013539002020B047A542F7D15646CA
:10347000BA464F4643460C9A90467A1C0C921A78EC
:10348000101E00D057E67AE60822072191460A9BD3
:1034900007338B4399444A460ACB0C000A921C43DB
:1034A000DA0F002C4ED0D817040010904C40119029
:1034B0000E94109811990C005C400F940E9B0F9C79
:1034C0001B1A8C410E930F940EA988461F230024CB
:1034D00043441297B046270013951E000E9C0F9D83
:1034E000E1460C9201E0202F10D0200029000A2292
:1034F000002300F0ABFA013730322B00F2550D00FB
:1035000022000400002BEED1092AECD84646CC4616
:103510000E940F950C9A3C00139D129F63460693E0
:103520000B9B059704930A2302920393CFE6FF2394
:103530000A9904C9134018000A9198E61023994388
:103540008C4674E643460024002BE7D10023002478
:103550000E930F94B8E743464D460A93741C3EE41D
:1035600080230A00DB001A409146194200D140E155
:103570000D2399430B3B08000C93CBE680230A00F4
:10358000DB001A409146194200D162E10D23202050
:103590009943033308430C93BCE66123810600D5AD
:1035A00041230EA91F228C46DBB262440A3B1397CB
:1035B0001495814645460C9FB0461293160008E0CC
:1035C0003033DBB201343355BD420ED3202C0CD046
:1035D00005003900280000F0F7F9CBB20929EFD92E
:1035E000129A94466344DBB2ECE746464846139F82
:1035F000149DB2E66F2800D03CE10C2308009843EC
:1036000080230A00DB001A409146194200D02AE1CB
:1036100008230C937EE60A99FA3BFF3B0731994356
:1036200001339C468C4463464A680A930B68904673
:103630009C461343191E06D14B4610310024884383
:10364000002B00D089E66121830600D541210EAA16
:1036500091461F234B449946C9B20C9B0A391397D4
:103660001495159645464E46002467469846814671
:1036700012910CE03032D2B2002301343255AB4209
:1036800000D1BCE0202C00D1BCE007000D00424678
:1036900000233800290000F0D9F9D2B2092AE9D96B
:1036A000129B9C466244D2B2E6E74346002B00D010
:1036B00004E6E2E50A9C08CCDA0F1392002B00D155
:1036C000A5E0D9175B184B4098460EAA91461F23D8
:1036D0004B440C95A14645461296E04606001C0058
:1036E0000A9701E0202E0FD028000A2100F06CF983
:1036F0000136A7193031397028000A2100F064F929
:103700002F000500092FEDD8C4464C4630000A9F13
:103710000C9D129E634606930B9B2A0004930A237A
:103720000393139B0190029316AB009351465B46A3
:1037300009980597FEF716FE0A940500741CFFF71A
:103740004EFB0A9B10CB1493002C04D110239843FA
:103750004B46002B2CD16123810600D541230EA9B5
:103760001F228C46DBB262440A3B129713958146B6
:1037700045460C9FB0460A93160008E03033DBB292
:1037800001357355BC420ED3202D0CD004003900F6
:10379000200000F019F9CBB20929EFD90A9A944612
:1037A0006344DBB2ECE748464646129FA846139DA9
:1037B0000B9B2A0004930C9B069003930023029317
:1037C0004346019316AB009351465B460998059713
:1037D000FEF7C8FD149B05000A93741CFFF7FFFA5F
:1037E00003061FD50A9B02CB09040A0C90460A93D4
:1037F000A8E50C2399430A3B08000C938AE5B845D9
:1038000000D83FE74846139F149D159EA5E5434603
:10381000002B00D07EE758E708C9DA179818504007
:103820000A9124E50A9B04CB90460A938AE501009D
:1038300001310C9124E60A9F6C1C01CF2A005B46E3
:10384000099D5146C0B2A84725000A97741CFFF78E
:10385000C6FA202319430C239943002399461033B9
:1038600008000C9356E508238C460C930D23604604
:1038700098434FE510230A009A439446692808D1DB
:1038800080230A00DB001A409046194200D1CEE4A2
:10389000CAE41C230800984380230A00DB001A4076
:1038A0009146194202D10A230C9333E50A230C9363
:1038B000DCE7C04600B585B003910121029000937A
:1038C000034813004A4202A9FFF762FA05B000BD9F
:1038D0006925001010B5094A0300146884B0002C53
:1038E00008D0012200910648524203A9A0470120B6
:1038F00004B010BD00F022FD0020F9E738110020CF
:103900005925001001480421014B1847B00400203C
:1039100035390010142310B50100188804331B88B2
:10392000984710BD162310B50100188802331B8874
:10393000984710BDF8B54746CE4680B50F1E19D042
:1039400014239946043304000025012698464B466B
:103950001888434621681B88984701C4431E984134
:10396000013540420640AF42F1D13000C0BCB946FB
:10397000B046F8BD0126F8E7124A936F9B0815D2AE
:103980009066D166002905D0FFE7FFE7FFE7516F9A
:10399000106F704704B580210906C21751400028F6
:1039A00000D0C84303F0E8FA002104BDF0B5146E5E
:1039B000556E576F166FFFF7E3FF1466556657672E
:1039C0001667F0BD000000D0114A936F9B0813D218
:1039D00010665166002905D0FFE7FFE7FFE7516F4A
:1039E000106F704704B5002801D00020C04303F0D9
:1039F000C3FA002104BDC046F0B5146E556E576F72
:103A0000166FFFF7E5FF1466556657671667F0BD3A
:103A1000000000D094464E4A926F9208624601D24E
:103A200030E0C046F0B54A4EB56F6D08FCD3346E39
:103A3000756E776F366F00F025F89446444A146629
:103A40005566576716676246F0BDC0469446404AC1
:103A5000926F9208624601D258E0C046F0B53C4EE3
:103A6000B56F6D08FCD3346E756E776F366F00F0EE
:103A70004DF89446364A146655665767166762468F
:103A8000F0BDC046002B24DB11D000293EDA00B582
:103A9000C943404200D1013100F038F8C9434042E7
:103AA00000D10131DB43524200D1013300BD002A75
:103AB000EBD1002801D1002905D00020C90FC9078A
:103AC00001D1C043410800B503F04EFA00220023A3
:103AD00000BD00B500290ADBDB43524200D10133AF
:103AE00000F014F8C943404200D1013100BDC94380
:103AF000404200D10131DB43524200D1013300F09A
:103B000005F8DB43524200D1013300BD002923D127
:103B1000002B18D1002A0CD0BC460D4F38667A66AF
:103B200000210023FFE7FFE7FFE77A6F386F674662
:103B30007047002801D00748010000B503F014FACF
:103B40000022002300BD02000B000020002170476E
:103B5000000000D0FFFFFFFF002B00D0BFE0130CE0
:103B600028D1002AE7D080B4114F39667A66FFE782
:103B7000FFE730B4040C7B6F396F1B0423433B66B3
:103B80007A66FFE7FFE7FFE7C04684B27B6F3D6FD1
:103B90001B0423433B667A66FFE7FFE7C04600232A
:103BA0002C042D0C7A6F386F00196941B0BC704736
:103BB000000000D0F0B594460025140E01D1120289
:103BC0000835140F01D112010435940F01D1920070
:103BD0000235D40F01D152000135D40B0134254FE9
:103BE0007C66254C3C660E0C93B2FFE7FFE7FFE7CF
:103BF0003C6F6643360C7703BE467343DF0B5B04B2
:103C0000C01AB941130C7343DB18C91ACE086643B6
:103C1000360CB64493B273431F0F1B01C01AB9414F
:103C2000130C73431F0B1B05C01AB941860D8F027D
:103C30003E436643360C092D24DB520A7243801A38
:103C40007703460A6643360C16235B1BDE40DF40D3
:103C5000BF1964466643821B704604350633010073
:103C6000D940A840C01900D30131A24206D2002396
:103C7000F0BD0000000000D0FFFFFFFF121B01306D
:103C8000F3D3F1E709277F1BFE406446A2B27243DB
:103C9000801A00D20139220C7243130C1204821ACA
:103CA00099410B007046043513370100F940A840D4
:103CB000801900D30131002B02D1A2420AD2F0BDFB
:103CC000013000D30131121BFAD2013BF8D1A242DC
:103CD00000D2F0BD013000D30131121BF7E7F0B57F
:103CE0001C0C00D080E00CB400251C0A04D11B027F
:103CF000160E3343120208351C0B04D11B01160F9C
:103D00003343120104359C0B04D19B00960F3343BF
:103D100092000235DC0B02D192185B4101351C0088
:103D2000971864410134464F7C66464C3C660E0C45
:103D3000FFE7FFE7FFE7C0463C6F6643360C7703BB
:103D4000BE4697B27743C01B00D20139C01B00D2D8
:103D500001399FB27743C91BC91B170C77437E04F7
:103D6000FF0B801BB941CE086643360C0C2D33DBAC
:103D7000B644120B1F053A431B0B97B27743C01B87
:103D800000D201399FB27743C91B170C77433E0419
:103D90003F0C801BB941860D8F023E4366432927A5
:103DA0007F1BFE400C3D7746AF40BF1930BCA2B22E
:103DB000ABB272437343801A9941220C7243130CC5
:103DC0001204801A994102000B000137001BA9411F
:103DD000F9D2781E0021F0BD0C277F1BFE407746EC
:103DE0007F0BAF40FF19E0E700245D1C07D0144FA4
:103DF0007D663966FFE7FFE7FFE7FFE73C6F95B2B7
:103E00009EB265436643401BB141150C1E0C6543D1
:103E1000664336042F0C3E432D04401BB1419942AA
:103E200004D202000B0020000021F0BD01D190421D
:103E3000F7D3801A994101349942F2D3F6E7000092
:103E4000000000D0FFFFFFFF48404140484018B449
:103E5000134B5B68019308BD18B4114B1B680193A9
:103E600008BD94460F4A926F920805D2624618B474
:103E70000B4BDB68019308BD0A4AF0B5146E556E12
:103E8000576F166F6246FFF7F2FF064A14665566D3
:103E900057671667F0BD18B4014B9B68019308BDC6
:103EA00060060020000000D0FFB550404240504066
:103EB00059404B40594000E0FFB5154F4C00640D90
:103EC00003D0BC4204D10C0314D80020090D09050D
:103ED0005C00640D03D0BC4204D11C030AD800224C
:103EE0001B0D1B0501264B4009D44B4003D58B42CB
:103EF00000D18242FFBD9942FCD19042FFBD0B43ED
:103F0000DB1803431343F5D0C9434918FFBD000034
:103F1000FF07000000B5FFF7CFFF804100BDC0469E
:103F200000B5FFF7C1FF01D9002000BD012000BD91
:103F300000B5FFF7B9FF804100BD012040054A00F0
:103F4000121804D85A00121801D800207047012016
:103F500070470020704700000021002805D17047FD
:103F6000C1174840401AFAD0C90713B5064B1B6861
:103F700098470CBC441CA2401005120B0349091BB6
:103F800009051943114310BD741100201F040000DE
:103F900010B54C00620D8023D218DB00D21A5B05ED
:103FA0007E2A10DD9E3A13DACC170903490819431B
:103FB0005242D140640001341532202A05DAD04043
:103FC0000843604310BD002010BD0846604310BD8B
:103FD000C80FC018013810BD18B4024B5B6A0193BA
:103FE00008BD00006006002010B50148FDF734FF51
:103FF000E8720010132370B51D78012D15D010DD67
:104000001B48FFF78FFC1B4C01008022200000F0B2
:10401000ADF8022D06D01848FFF77CFC174B18604E
:1040200070BD144C164BA364F5E7164B114C23607E
:104030006360A360E36023616361A361E361236262
:104040006362A362E36223636363A363E363236442
:104050006364A364E36423656365A365E365236622
:104060006366A366E36623676367A367E367D9E7CD
:1040700053440000600600204C33000074110020FF
:1040800089400010E93F001007B5604601880A0A20
:104090000230DF2AFAD1C9B2820804D302884088EC
:1040A0000004104300E00068014A5050039007BD2F
:1040B0006006002051434343C9188C46110C83B25B
:1040C0004B4310B4040C614392B280B2504362433C
:1040D0001C041B0C001910BC59411304120CC0180D
:1040E000514161447047000010B50148FDF7B4FE2E
:1040F000E4700010132310B510481C78FFF712FC71
:104100000100012C0AD003DD80220D4800F02EF8BA
:104110000C48FFF7FFFB0C4B186010BD084C5422F5
:10412000200000F023F82200084980322368002B89
:1041300000D1216004349442F8D1E9E753460000ED
:10414000781100204C33000074110020E940001069
:1041500001480421014B1847C004002035390010E4
:10416000014B1B6818470000C0040020014B5B682E
:1041700018470000C0040020F0B546464F46D6461A
:10418000C0B5437C80460E001700002B4BD0002AA0
:1041900032DD274B01259A464B1E0024002099460C
:1041A00007E0335D0A2B2CD02B0001340135BB42D4
:1041B00013DA002CF5D133780A2BF5D143461B7C5A
:1041C000002BF1D14346504602211B689847280036
:1041D0002B0001340135BB42EBDB874204DD434653
:1041E000391A1B6830189847F619013E33780D3B91
:1041F0005A42534142461374E0BCBA46B146A846FF
:10420000F0BD4B461B5D0D2BCED0A042DADA434603
:10421000211A1B68301898474346504602211B68F4
:1042200098472800D4E70368110030009847E3E777
:1042300064730010F0B5C6460B6806000C0000B5AC
:10424000802B06D05A1C2260E418267180BCB84628
:10425000F0BD0F4B1D68002D16D00B1D98460D4F5D
:1042600002E0ED68002D0FD02B68002BF9D03B68E1
:10427000002B01D0AB42F4D1280041462268FFF761
:104280007BFFED68002DEFD101220023DBE7C04664
:10429000300D0020340D0020F0B5CE46474680B5E5
:1042A00083B06B46DE1CD02330701B061C68204B8D
:1042B000804601A91800994602F066FE071E20D02C
:1042C0001C4B1C68002C29D01B4D02E0E468002C1C
:1042D0000FD02368002BF9D02B68002B01D0A3420C
:1042E000F4D1200001223100FFF746FFE468002CE2
:1042F000EFD1002F12D1404603B0C0BCB946B04642
:10430000F0BD019B64B29C420CD0484602F054FEC2
:10431000084B1C68002C01D00127D5E7484602F065
:104320001BFEE8E7034B1C68002CCDD1E3E7C04639
:1043300010050020300D0020340D0020F0B5DE46C1
:1043400045464E465746E0B583B0060002F0C4FD30
:10435000D0231B061C68304B050001A918009B46A2
:1043600002F012FE804600283DD02C4B1C689A4675
:10437000002C47D00A232A4F994602E0E468002C1B
:1043800017D02368002BF9D03B68002B01D0A34243
:10439000F4D120002A003100FFF7EEFE6B464A46BA
:1043A00020001A7101A90122FFF7E6FEE468002C43
:1043B000E7D14346002B25D153461C68002C06D07C
:1043C0006368002B0BD09847E468002CF8D12800D4
:1043D00003B0F0BCBB46B246A946A046F0BDE468B7
:1043E000002CEDD1F3E7019B64B29C420ED05846FD
:1043F00002F0E2FD094B1C689A46002C02D0012312
:104400009846B7E7584602F0A7FDD5E7034B1C686E
:104410009A46002CAED1DAE710050020300D0020BE
:10442000340D00200A4A1368002B05D10CE01A0055
:10443000DB680C32002B07D09842F8D1002902D15A
:10444000C3681360C16070470029FCD01060FAE7B0
:10445000300D0020F0B54746CE46D02380B51B0670
:104460001F682D4BA3B004000D00180001A9984649
:1044700002F08AFD061E06D1019B7FB29F4203D047
:10448000404602F099FD01268422002101A8FFF791
:1044900067FE2B002200214801A9FFF70BFA019BC0
:1044A0000700002B14D11E4B1C68002C06D063683B
:1044B000002B0BD09847E468002CF8D1002E25D1B2
:1044C000380023B0C0BCB946B046F0BDE468ECE7A4
:1044D000134B1D689946002D1CD0124C02E0ED686C
:1044E000002D0FD02B68002BF9D02368002B01D0B2
:1044F000AB42F4D12800019A02A9FFF73DFEED6816
:10450000002DEFD14B4601951C68CEE7404602F0E6
:1045100023FDD5E70195D1E71005002035420010B5
:10452000300D0020340D00200FB400B583B004A975
:1045300001C90191FFF78EFF03B008BC04B0184712
:1045400010B500F03DF910BD7047C0460022014B88
:104550001A707047B01200204B790020FF2B0BD14E
:104560008B79002B08D1CB79012B05D1082A03D9EF
:10457000024B8A7809301A707047C046B01200208A
:104580000120704770B5002913D11449537910796F
:1045900009781B0203430020994200D070BD537874
:1045A000012B08D0022BF9D1642200210020FDF755
:1045B0002DFE0120F2E79478D27805001202144310
:1045C000D20502D5620A93401D000548FFF7A2F903
:1045D0007F210300214028009847C046B0120020E8
:1045E00055420000012303700048704768730010B3
:1045F0004B780A781B0213438A7810B512041A43C9
:10460000CB781B0613439622D200934200D010BDF4
:104610000348FFF77FF90021030008009847C046D0
:104620005542000070B5184C82B006000D00200005
:1046300001A902F0A9FC002808D1D0231B06019A89
:104640001B689A421CD0200002F0B6FC002001F04A
:10465000A9FD002807D103256D42200002F07CFC53
:10466000280002B070BD002001F0B4FD0028F2D097
:104670002A003100002001F0B9FD051EEBD0ECE767
:1046800003256D42ECE7C0467C120020F0B5DE4603
:104690004E465746C0B5344B82B081460D001800D7
:1046A00001A99B4602F070FC002808D1D0231B060C
:1046B000019A1B689A4250D0584602F07DFC0020B7
:1046C00001F070FD002840D00024002D42DD274B72
:1046D0009A4612E04B460020191901F0FBFD060036
:1046E00000F0EEFD002001F0B9FDFDF71FF8534684
:1046F00018605960A419AC422CDA002001F004FEC5
:104700002E1B0200B04200DD3200002AE2D100F090
:10471000D7FD002001F0A2FD002001F043FD00289C
:1047200018D0002001F0F0FD0028E4D1FCF7FEFFD6
:10473000002753460E4E1A685B6892197B419942D6
:1047400008D8D8D19042D6D904E000200021074BE8
:1047500018605960584602F0FFFB02B0E0BCBB464F
:10476000B246A946F0BDC0467C1200205806002083
:1047700020A1070010B5044B1878FCF7B3F8FA2015
:104780000021800010BDC046B112002010B5024BC0
:104790001878FCF7A7F810BDB112002010B5074C2F
:1047A0000021200002F0F0FB002800D110BD00F035
:1047B00087FD200002F0D0FBF8E7C0467C12002005
:1047C000F0B5244B85B01B7801F080FF2248FDF73F
:1047D0009FFA0120FCF722FBFF23204C2049207088
:1047E0001840FCF7A5F820780121FCF769F80520AE
:1047F000FCF780F8041E0CD0002205201949FCF7B4
:10480000C1F801211848FFF70DFE0124200005B072
:10481000F0BDFCF777FD0500FCF788FFFA220600E3
:104820000F000023920092197B4199420ED80BD0C1
:1048300001210291002101910C4928000091FCF70F
:1048400065FD0028E2D0DCE79042F1D90122524216
:10485000D317EDE77C7500107C120020B112002008
:104860009D4700108D470010D004002075470010B0
:10487000004870473874001000487047E473001017
:1048800010B5040017480378002B20D0002C06D167
:10489000154B16484380063BFF3B038010BD052C9B
:1048A00019D8134BA400E0581249002304E0013347
:1048B0000A800231132B10D0C25C002AF7D1C0222B
:1048C0000133DBB25B00920008481343E5E7112196
:1048D00002F096F9DAE70020E0E7CA2303489B00DC
:1048E000DBE7C0469412002009040000080D0020F8
:1048F000CC7300100A0D0020F0B5982357464546AA
:10490000DE464E46674AE0B5D75880253C006D022A
:1049100085B02C40883B2F420ED001222321624BD0
:1049200000205A546149DA7001F000FA80222C000C
:104930005F4B92021A655F4BFA0617D480235B0126
:104940001F424BD18023DB011F4200D080E0802337
:104950001B021F4200D089E0BC4200D09DE005B0A0
:10496000F0BCBB46B246A946A046F0BD4D4A926D8A
:104970009046002A2DD04E4A0024934601229146AB
:10498000494A0126924642465146B8469A46170081
:10499000039104E001347600E4B2202C17D03742B2
:1049A000F8D05B469E654B466508A3436D00ED1845
:1049B000039B6D019C466544280000F00DFB002818
:1049C0005FD10134B743E4B27600002FE5D147460A
:1049D00053461C0080235B011F42B3D01C430023BD
:1049E000304A00211360314A33489360D360136129
:1049F00053619361D361136253629362D362136311
:104A000053639363D363136453649364D3641365F0
:104A100053659365D365136653669366D3661367D0
:104A200053679367D367F0229200FFF799FB234BFC
:104A3000234A00211A600020012201F04BF9802254
:104A40001B4B12031A658023DB011F4200D17EE756
:104A50000122042100201C4301F0AAF81022144B6B
:104A60001A6580231B021F4200D175E70122052130
:104A700000201C4301F09CF880220D4B12011A65A6
:104A80006AE74B46AA8AA97800200093002301F028
:104A900075F9280000F0DCF993E721000948794016
:104AA000FDF7DAF900001150380D00200000105019
:104AB0000030115010000100780D0020401100203E
:104AC000800110504C74001010B501210520FBF737
:104AD000F7FE10BD10B500220021024800F0E0F9F9
:104AE00010BDC046580D00208022024B5202DA64ED
:104AF0007047C04600201150F0B5C64600B506000C
:104B000000F080F90C232E4D0520AB672D49FBF7F3
:104B10000FFF402398462C4C402200212000FFF735
:104B20001FFB43460127A38321210023274A6770E7
:104B3000A260136063545F3161844146A1870239EA
:104B40006354234A23496360E260A1620B60E2621E
:104B5000214A636220009360D360136153619361C3
:104B6000D361136253629362D3621363536393639B
:104B7000D363136453649364D3641365536593657B
:104B8000D365136653669366D3661367536793675B
:104B9000D367F022002192004030FFF7E1FA0F4B7B
:104BA0000F4A30001A6080239B052F64EB6490232A
:104BB0000C4AEA50FFF798FF80BCB846F0BDC046EB
:104BC00000001150F9480010380D002084001050EA
:104BD00000011050800010500000105040110020C3
:104BE0008001105010D001000B785B0602D14B7889
:104BF000052B00D070478A78014B1A60FAE7C0464F
:104C000000001150F0B5CE464746072380B54879DD
:104C10008E780A790340C8787F21800731401B02D3
:104C2000F40913434F00820F944691462A4D3A19D6
:104C30005201AA18967001266640567060460026FA
:104C40009383D6709077CA00012C29D023488446DC
:104C5000880162448446AC44604682601660002944
:104C600029D01F4AC9009046414441603F223F334A
:104C700093434A46022A00D15B001A493F190A6849
:104C80007F01D3180B60184BED195340EA604A4678
:104C90009006184380236A681B060343136010E0E4
:104CA00012488446880162448446AC44604682626D
:104CB000166000290AD1002364012C1963600C4B93
:104CC000E3600120C0BCB946B046F0BD064AC90049
:104CD000904641444162C9E7380D002084001050DD
:104CE00004001050401100200000105080001050AF
:104CF000000110500022154B10B59A60DA601A615D
:104D00005A619A61DA611A625A629A62DA621A63C5
:104D10005A639A63DA631A645A649A64DA641A65A5
:104D20005A659A65DA651A665A669A66DA661A6785
:104D30005A679A67DA67F032920000210448FFF759
:104D40000FFA044B044A1A6010BDC0460000105010
:104D5000780D0020401100208001105010B57F20F8
:104D60000C0020404000E409110000191A00034B18
:104D70004001C01800F094F8012010BD380D00204B
:104D80007F23180010B508400B420BD0C9098022C0
:104D90004000074B401840010021C018120100F0EC
:104DA0005DF810BD0223034AC9095B1A9366EEE75A
:104DB000380D0020002011507F22130010B50B4049
:104DC0000A4200D110BDC9095B005B1804485B01B1
:104DD000C018002300220349C37000F03FF8F1E738
:104DE000380D0020FFF7FFFF7F21C209034B92001F
:104DF000014010B5D2580248FDF72EF8E404002017
:104E00006074001080220D4B520410B51A600C4BD8
:104E10000C491A6010008B689843FBD10A4C9C2205
:104E200000212000FFF79CF9802200215201074851
:104E3000FFF796F90923636710BDC04600E0004004
:104E400000F0004000C00040000011500000105071
:104E500000230374438283828361704710B58368A3
:104E6000002901D01C682140002A11D08024E400D0
:104E7000114322420CD01A6822420BD1074A0A4041
:104E80001A60FFE7FFE7FFE7FFE7FFE7FFE7836859
:104E9000196010BD8078FFF7A7FFC046FFFBFFFF3A
:104EA000F0B5C646002300B583820133037443681E
:104EB00004001F68838B81611E1C934200D9161C5D
:104EC0008020B6B2921B93B2E278C0003043150046
:104ED0008446681E854160466D03054301204240BB
:104EE000E27062786382002A52D0002B2ED080229A
:104EF00052011543344A126C920745D5A28B101CFF
:104F00009A4200D9181C82B28020C00010439B1A1C
:104F10009046E27884461600701E8641604676030D
:104F2000064301204240E27062789BB26382002A0D
:104F30003AD0002B02D18023DB011E43A023234A59
:104F400036043A40DB053543134309E0A023DB0177
:104F50001D431D4B1B6C80231D4A9B053A40134388
:104F600062681360A26813685B052AD4194B2B4052
:104F70001360FFE7FFE7FFE7FFE7FFE7FFE7A3684F
:104F80001D6080BCB846F0BDA278D209B6D1E2E778
:104F90003200E068FFF7EAF88023A1691B02891953
:104FA0001D43A161638AA0E7E06842464030FFF7F5
:104FB000DDF8A3694344A36180231B021E43638A77
:104FC000B7E7A078FFF710FF00001150FFFFFFDFE9
:104FD000FFFFFFAFFFFBFFFFF0B5C64600B5067C45
:104FE0000400002E00D1CEE083681A681D68437863
:104FF000AD05AD0D002B00D070E0838AEB189BB29D
:105000008382A18B8D4207D20023638263681B6871
:10501000300080BCB846F0BD62681268520010D5FE
:105020008D420ED1A26815686278AD01AD0D002ADF
:1050300000D08CE0EB18A3828D4202D20023638261
:10504000E6E7638A002BE3D062681E1C17688B4278
:1050500000D90E1CE17880220D00681E8541B6B291
:10506000D20032436D03154301229B1B51406278ED
:105070009BB26382E170002A5AD0002B3BD0802281
:1050800052011543454A126C920702D4A278D20904
:1050900036D0A28B111C9A4257D88AB28021C900FF
:1050A00011439B1A9046E2789BB21600701E86410F
:1050B00076030E4301214A40E27062786382002A3F
:1050C00053D0002B02D18023DB011E43A023344A9E
:1050D00036043A40DB053543134316E02A00806965
:1050E000E168FFF743F8A38AA269EB189BB2521953
:1050F000A382A26185E7A023DB011D43274B1B6C24
:105100008023284A9B053A40134362681360A268D3
:1051100013685B053ED4244B2B401360FFE7FFE789
:10512000FFE7FFE7FFE7FFE7A36800261D606FE7E3
:105130003200E068A169FFF719F8A3699B19A36120
:1051400080231B021D43638A97E7191CA5E7E168CA
:105150002A004031A069FFF709F8A38AA18BEB1858
:10516000A382A3695B19A36166E7E0684246A1696F
:105170004030FEF7FBFFA3694344A36180231B0279
:105180001E43638A9DE77F238178084A08481940B7
:10519000FCF762FEA078FFF727FEC0460000115022
:1051A000FFFFFFDFFFFFFFAFFFFBFFFFE404002077
:1051B00080740010024B5878431E9841C0B270476B
:1051C000980A0020024B18784007C00F7047C0466D
:1051D000980A0020014B18787047C046AB12002097
:1051E000F0B5C6462D4F05003B7800B5002B03D027
:1051F000012080BCB846F0BD532200212848FEF7AC
:10520000AFFF284C2000FCF783FD274B1C60274C88
:1052100020001C3CFCF798FD200001F0A5FC244B6D
:10522000244E1C60244B9846002B2AD03000FFF7F8
:10523000D9F94246214B002418603378002A25D042
:105240001E4A90469C420FD301F06AF8013433782D
:10525000E4B2A342F6D22800FFF74EFC2800FFF785
:1052600033FC01233B70C3E743461A6863001B19F4
:10527000DB009B58984701343378E4B29C42E1D973
:10528000E9E7424600243378002AD9D101F048F8F2
:105290003378002BDFD043461B68FFDEAB120020C3
:1052A000980A0020500A0020EC0A0020080500207F
:1052B000F00A0020AA120020E54500106007002037
:1052C000F0B5DE4657464E464546E0B591B001F092
:1052D00003FA002800D144E1C24BC34E0193C34BF3
:1052E0000DAC0293C24B00969B46009B1D68EA6979
:1052F000EFF3108172B61368002BFCD0BFF35F8F01
:1053000029622800210001F0A1FAEA692B6ABFF3A3
:105310005F8F0021116083F31088002800D120E105
:105320006378082BE1D8019A9B00D3589F466368A5
:10533000002BDAD0A0689847D7E77F222179AB4BC2
:105340000A405500C8095B191B18180001273030A6
:10535000C578BD43C570C5780337BD43C570002A05
:1053600000D105E1A34ADB7C002A06D0A24A1278CC
:10537000934200D287E19B1ADBB2002B00D0F0E011
:105380009E4DA36862792078A847AEE70122974F27
:1053900001213B78042013433B703323FA5C8A439A
:1053A000FA54FA5C8243FA540133FA5C8A43FA54A1
:1053B000FA5C8243FA54237800209A4600F064FE97
:1053C000602223791A40602A0DD0402A00D1EBE0F8
:1053D000DB06DB0E012B00D160E1022B00D11BE1CB
:1053E000002B00D1EFE020780021FFF7C9FC8021DD
:1053F0002078FFF7C5FC78E7029B1B78DB0700D419
:1054000073E77F4B002B00D16FE700E000BF6CE734
:10541000764A1378DB0700D467E77A4B002B00D17C
:1054200063E710780007C00F00E000BF5DE7724D32
:10543000704A00272B78002A00D1B0E06C4A160091
:105440009F4205D30137FFB29F4200D94DE7F9D201
:105450007A003168D219D2008A185269002AF1D034
:105460002078904701372B78FFB2BB42E8D23CE767
:105470002378614D98465F4A0027914646462B782F
:10548000002A00D183E0BB425CD8300000F086FFE8
:1054900001372B78FFB2BB42F5D2029D5322002187
:1054A0002800FEF75DFE1022FF215748FEF758FE48
:1054B00028002022FF211330FEF752FE00F0DAFD13
:1054C000524B002B00D110E700E000BF0DE723781E
:1054D000494D484A9846914600272B78002A4DD0DE
:1054E000434A46469146BB421DD8300000F056FF65
:1054F00001372B78FFB2BB42F5D23C4D532200213D
:105500002800FEF72DFE1022FF21E81CFEF728FEE2
:1055100028002022FF211330FEF722FE00F0AAFD12
:105520002379AB70E1E64B461A687B00DB19DB00A0
:10553000D3185B683000984701372B78FFB29F4241
:10554000D1D9DAE75B461A687B00DB19DB00D31898
:105550005B683000984701372B78FFB2BB4292D28C
:105560009BE711B0F0BCBB46B246A946A046F0BDD1
:10557000A3686279207800F09BFDB6E6404600F013
:105580000DFF2B78002BB8D04B465B68FFDE404602
:1055900000F004FF2B78002B00D17EE7F4E7002B0E
:1055A00000D1A2E65369FFDE1948002800D11AE7AE
:1055B00000F06AFD002150460EAA00E000BF00285E
:1055C00000D092E60FE7202A00D19CE0002A00D00C
:1055D00009E76379092B00D905E70E4A9B00D358E8
:1055E0009F46C046B4740010F00A0020980A0020BC
:1055F00060070020E5450010AA1200209165001008
:1056000000000000000000009B0A002000000000D5
:1056100000000000D87400107023217A0B4200D0E3
:10562000E1E60F330B405B00CD09F8184019C67C4A
:10563000B948002806D0B9480078864200D283E0F5
:10564000301AC6B2002E7BD1002A00D010E1B44A35
:105650009146022662799046B243012A00D10BE1BD
:105660004246002A00D0BEE6FB185B193033DB78D7
:105670000CAA9B07DB0F02321380504602230EA9AF
:1056800000F0A2FC31E6A74A58001268C318DB00FC
:10569000D318002B00D164E71D6972E6237A0F2B23
:1056A00000D9A0E69C4AFB18DB78002A05D09B4A6B
:1056B0001278934263D39B1ADBB2002B00D092E6A0
:1056C0009948974D00F0E0FC00215046EB680EAA87
:1056D0009847002800D008E66022150023791D4075
:1056E0001A4200D07FE663790A3B012B00D97AE6A3
:1056F00000F0CAFC63790A2B00D1EAE050460EA9FB
:1057000000F04CFCF1E5237A0F2B00D96BE6824ABE
:10571000FB18DB78002A06D0804A1278934200D228
:10572000CCE09B1ADBB2002B00D05CE67E487C4DBF
:1057300000F0AAFC00215046EB680EAA98473EE70D
:105740009146002A85D04EE6764803907000844644
:10575000039866440068F6008146B144002A00D1EF
:1057600077E74B46002B00D13DE6D86800F08CFC73
:105770004B4600215046DB680EAA98471FE7694A4E
:1057800059001568CB18DB00ED18002D00D12AE672
:10579000E86897E7E388012B00D024E608223B78ED
:1057A000504693430EA93B7000F0F8FB9DE50220A4
:1057B00039780CAB9A1C8B068908DB0F01400B4330
:1057C0005AE7A37998467B78984507D07B78002BD9
:1057D00000D01AE14346002B00D0ABE043465046D0
:1057E0000EA97B7000F0DAFB7FE57B780CAA023211
:1057F0001370504601230EA900F0E6FB75E5E3881F
:105800001A0AD8B20F2A00D9EDE548499300CB58BF
:105810009F460EA800F03EFC5046A179FFF75AF9CA
:1058200002223B7813433B705FE5E388012B00D0F5
:10583000D9E508223B78504613430EA93B7000F08F
:10584000ADFB52E5022A00D19BE1394B002B00D180
:10585000C9E500E000BF0200002A00D1C3E5D3780B
:1058600091781B020B4350460EA900F0ADFBA6E653
:105870002B4B2D48994679E7E288002A08D1424609
:10588000FB185D193035EB78012A37D09B0729D5F5
:105890004B46002B00D128E5D86800F0F5FB4B46BD
:1058A0000021DB680EAA50469847002000F0ECFB70
:1058B0003423FB5CDB0700D517E51FE7194A5900C5
:1058C0001568CB18DB00ED18002D00D18BE5E868DA
:1058D0002EE70CAB9A1C504601230EA9157000F060
:1058E00073FB02E55046FFF74BFA0222EB781343B5
:1058F0000122EB70EB781343EB70C9E79B07C7D528
:105900005046FFF759FA4246EB78B343EB70EB7819
:105910009343EB70BCE7C046E5450010AA12002097
:105920004075001060070020AD6400100075001085
:1059300000000000581EC0B2FEF79EFF002800D1F4
:1059400051E543780893022B00D04CE50121C3793F
:105950009A115B110A400B4052011B0113433A7824
:105960002F318A4313433B7009239946C3788278C9
:105970001B021343C3180593844B81440493844B47
:105980000A93844B0693844B079343460B933B0047
:105990004F469946059BBB4200D8E0E001227B7848
:1059A00003920B2B04D1FB7803933B78FF187B7891
:1059B000042B00D017E5059B0025DB1B9BB21E00C6
:1059C000049B1A780A9B002B00D18BE0734BB846DE
:1059D00009930EE03200414650469847082801D905
:1059E000864258D2049B01351A78EDB2AA4200D201
:1059F000F9E4069B079F9542ECD2099A6B00176861
:105A00005B19DB00FF18BB68E4E75046FFF772F94B
:105A10000022BB785D4D5E4E039391462B78002E9D
:105A200030D05E4E32002E004D469146AB421AD821
:105A3000504600F0B3FC01353378EDB2AB42F5D2FD
:105A4000532200213800FEF78BFB1022FF21F81CA7
:105A5000FEF786FB38002022FF211330FEF780FB83
:105A6000039BBB70B6E64B461A686B005B19DB0004
:105A7000D3185B685046984701353378EDB29D42A4
:105A8000D4D9DDE7504600F089FC2B78002BD7D025
:105A900033005B68FFDE3B00060047469846039BE9
:105AA000012B66D0039B002B0FD00023B97805E0B3
:105AB000D5700133039ADBB2934206D2CA18D2B230
:105AC0004A44D078FF28F3D08DE42B00390032000F
:105AD000334800F045FE049BBF191B78AB4200D34E
